:100000000C9458000C9480000C9480000C94800098
:100010000C9480000C9480000C9480000C94800060
:100020000C9480000C9480000C9480000C94800050
:100030000C9480000C9480000C9480000C94800040
:100040000C94CF040C9480000C943F050C9419057B
:100050000C9480000C9480000C9480000C94800020
:100060000C9471050C94800000000000250028000D
:100070002B00040404040404040402020202020229
:10008000030303030303010204081020408001025C
:1000900004081020010204081020000000080002DB
:1000A00001000003040700000000000000009006AB
:1000B00011241FBECFEFD8E0DEBFCDBF23E0ACEDF3
:1000C000B1E001C01D92AC34B207E1F711E0A0E04D
:1000D000B1E0E6E6FCE102C005900D92AC3DB1074F
:1000E000D9F710E0C8E5D0E004C02197FE010E94D6
:1000F000300CC735D107C9F70E94C9060C94310EE0
:100100000C94000090E0FC01E656FF4F2491FC01A6
:10011000EA57FF4F3491FC01EE58FF4FE491EE2374
:10012000C9F0222339F0233001F1A8F4213019F16C
:10013000223029F1F0E0EE0FFF1FE859FF4FA591A3
:10014000B4918FB7F894EC91611126C030953E239D
:100150003C938FBF08952730A9F02830C9F0243090
:1001600049F7809180008F7D03C0809180008F7758
:1001700080938000DFCF84B58F7784BDDBCF84B5DB
:100180008F7DFBCF8091B0008F778093B000D2CF6E
:100190008091B0008F7DF9CF3E2BDACF8E508064F6
:1001A00080937C0080917A00806480937A008091B3
:1001B0007A0086FDFCCF80917800909179000895B7
:1001C0003FB7F8948091970290919802A09199027C
:1001D000B0919A0226B5A89B05C02F3F19F0019651
:1001E000A11DB11D3FBFBA2FA92F982F8827BC0191
:1001F000CD01620F711D811D911D42E0660F771FB9
:10020000881F991F4A95D1F708958F929F92AF92B8
:10021000BF92CF92DF92EF92FF926B017C010E941E
:10022000E0004B015C01C114D104E104F104B9F018
:100230000E94E000681979098A099B09683E7340A9
:100240008105910580F321E0C21AD108E108F10887
:1002500088EE880E83E0981EA11CB11CE4CFFF90AD
:10026000EF90DF90CF90BF90AF909F908F900895C8
:1002700008950895AF92BF92CF92DF92EF92FF92CE
:100280000F931F93CF93DF936C017B018B01040FBE
:10029000151FEB015E01AE18BF08C017D10759F05A
:1002A0006991D601ED91FC910190F081E02DC6019C
:1002B0000995892B79F7C501DF91CF911F910F9196
:1002C000FF90EF90DF90CF90BF90AF900895FC012A
:1002D000538D448D252F30E0842F90E0821B930BAB
:1002E000541710F0CF96089501970895FC01918D51
:1002F000828D981761F0A28DAE0FBF2FB11D5D9654
:100300008C91928D9F5F9F73928F90E008958FEFF5
:100310009FEF08952FB7F89480919B0290919C02D3
:10032000A0919D02B0919E022FBF8093A70290934F
:10033000A802A093A902B093AA028FE992E00E94BA
:10034000760197FF26C02FB7F89480919B02909179
:100350009C02A0919D02B0919E022FBF4091A702E6
:100360005091A8026091A9027091AA02841B950B7A
:10037000A60BB70B4091A3025091A4026091A50275
:100380007091A60284179507A607B707B0F28FEF02
:100390009FEF0895FC01918D828D981731F0828D29
:1003A000E80FF11D858D90E008958FEF9FEF089580
:1003B000FC01918D228D892F90E0805C9F4F821BE4
:1003C00091098F73992708958FE992E00E94D801CF
:1003D00021E0892B09F420E0822F089580E090E04D
:1003E000892B29F00E94E40181110C9400000895EA
:1003F000FC01A48DA80FB92FB11DA35ABF4F2C919A
:10040000848D90E001968F739927848FA689B78990
:100410002C93A089B1898C91837080648C93938D87
:10042000848D981306C00288F389E02D80818F7D2A
:1004300080830895EF92FF920F931F93CF93DF93E2
:10044000EC0181E0888F9B8D8C8D98131AC0E88910
:10045000F989808185FF15C09FB7F894EE89FF89DF
:100460006083E889F98980818370806480839FBF7D
:1004700081E090E0DF91CF911F910F91FF90EF907D
:100480000895F62E0B8D10E00F5F1F4F0F7311278D
:10049000E02E8C8D8E110CC00FB607FCFACFE889C8
:1004A000F989808185FFF5CFCE010E94F801F1CF57
:1004B000EB8DEC0FFD2FF11DE35AFF4FF0829FB73C
:1004C000F8940B8FEA89FB8980818062CFCFCF932C
:1004D000DF93EC01888D8823B9F0AA89BB89E8896C
:1004E000F9898C9185FD03C0808186FD0DC00FB612
:1004F00007FCF7CF8C9185FFF2CF808185FFEDCF90
:10050000CE010E94F801E9CFDF91CF9108952091AB
:100510002202260F3327331F21323105ECF42091BC
:100520004602FC0190E080E0243069F082E008950A
:10053000A09122022191AC014E5F5D4FA40FB52F17
:10054000B11D2C930196861798F380912202680FB3
:100550006093220280E0089581E00895109246029F
:1005600081E0809348021092470261E082E10E949C
:10057000820061E083E10E948200E9EBF0E080818B
:100580008E7F808380818D7F808388E48093B80014
:1005900085E48093BC0008950895E09173028091F2
:1005A0007202E81730F4F0E0E452FE4F808190E0F0
:1005B00008958FEF9FEF08959091730280917202DA
:1005C0002FEF3FEF981748F4E92FF0E0E452FE4F89
:1005D000208130E09F5F90937302C901089580915C
:1005E000720290917302891B990B0895CF93DF9348
:1005F000CB01EA01642F0E948702CE01DF91CF91E7
:100600000895CF93DF931F92CDB7DEB7698361E082
:10061000CE0101960E94870281E090E00F90DF9169
:10062000CF91089590E080E00895FC0101900020B2
:10063000E9F73197AF01481B590BBC018FE992E0F4
:100640000C943A018F929F92AF92BF920F931F9397
:10065000CF93DF93CDB7DEB7A1970FB6F894DEBF87
:100660000FBECDBF19A2423008F44AE08E010F5DE3
:100670001F4F842E912CB12CA12CA50194010E9416
:100680000E0CE62FB901CA01EA30F4F4E05DD8019E
:10069000EE938D01232B242B252B79F790E080E01E
:1006A000109719F0CD010E941503A1960FB6F8948A
:1006B000DEBF0FBECDBFDF91CF911F910F91BF90D5
:1006C000AF909F908F900895E95CE1CFCF93DF9337
:1006D0000E941503EC018AE291E00E9415038C0F41
:1006E0009D1FDF91CF9108954F925F926F927F92FD
:1006F0008F929F92AF92BF92CF92DF92EF92FF9232
:100700000F931F93CF936B017C01742EAC019B015F
:100710000E94090C882399F08DE291E0CF911F91FE
:100720000F91FF90EF90DF90CF90BF90AF909F9090
:100730008F907F906F905F904F900C9415034601BF
:100740005701E894B7F82FEF3FEF4FE75FE7C50198
:10075000B4010E94090C81110DC02FEF3FEF4FE74C
:100760005FE7C501B4010E94980918161CF481E3E3
:1007700091E0D4CF2FEF3FEF4FE75FE4C701B60121
:100780000E94040C18161CF485E391E0C7CF2FEFEC
:100790003FEF4FE75FECC701B6010E94980987FD64
:1007A000F3CF20E030E0A901C701B6010E9498090B
:1007B00010E000E087FF0AC06DE28FE992E00E943E
:1007C0001A028C01F7FAF094F7F8F094C0E060E0B8
:1007D00070E080E09FE37C1641F020E030E040E2F2
:1007E00051E40E94630BCF5FF6CFA70196010E94F0
:1007F000F70A2B013C010E94D50B4B015C014AE03A
:100800000E9422037C01E00EF11ECC23C1F1C50140
:10081000B4010E949D099B01AC01C301B2010E9479
:10082000F60A4B015C016EE28FE992E00E941A0227
:10083000E80EF91EC15018F120E030E040E251E42A
:10084000C501B4010E94FE092B013C010E94D50B99
:100850004B01B12CA12C4AE0C501B4010E94220336
:10086000E80EF91EC501B4010E949D099B01AC016F
:10087000C301B2010E94F60A4B015C01DBCFC70144
:10088000CF911F910F91FF90EF90DF90CF90BF908D
:10089000AF909F908F907F906F905F904F90089552
:1008A0000F931F93CF93DF93EC0188819981009779
:1008B00059F02A813B812617370730F081E0DF911C
:1008C000CF911F910F9108958B016F5F7F4F0E9411
:1008D0005B0D009759F0998388831B830A832C81D1
:1008E0003D81232B59F7FC011082E8CF80E0E7CF50
:1008F000CF93DF9385ED8093BC008091FE019091B2
:10090000FF01A0910002B09101020796A11DB11D47
:1009100023E0B695A795979587952A95D1F72091CD
:10092000BC0024FD03C01092460236C04091FE0177
:100930005091FF016091000270910102452B462BFE
:10094000472B69F30097A105B10541F02AE22A95EA
:10095000F1F700C00197A109B109E1CF8091FD0134
:1009600091E09093FC018823B9F0C091B800D09138
:10097000BA008091BC008A7B8093BC0060E082E179
:100980000E94820060E083E10E9482000E94AE0229
:10099000D093BA00C093B800DF91CF9108951F9211
:1009A0000F920FB60F9211242F933F938F939F9323
:1009B000AF93BF9380919B0290919C02A0919D0266
:1009C000B0919E023091960223E0230F2D3758F507
:1009D0000196A11DB11D2093960280939B029093D6
:1009E0009C02A0939D02B0939E02809197029091E9
:1009F0009802A0919902B0919A020196A11DB11D91
:100A00008093970290939802A0939902B0939A02D0
:100A1000BF91AF919F918F913F912F910F900FBEFA
:100A20000F901F90189526E8230F0296A11DB11D67
:100A3000D2CF1F920F920FB60F9211242F933F9394
:100A40004F935F936F937F938F939F93AF93BF93D6
:100A5000EF93FF938FE992E00E94F801FF91EF91ED
:100A6000BF91AF919F918F917F916F915F914F91C6
:100A70003F912F910F900FBE0F901F9018951F92CE
:100A80000F920FB60F9211242F938F939F93EF9392
:100A9000FF93E091AF02F091B0028081E091B50246
:100AA000F091B60282FD1BC090818091B8028F5FE9
:100AB0008F732091B902821741F0E091B802F0E003
:100AC000E156FD4F958F8093B802FF91EF919F9172
:100AD0008F912F910F900FBE0F901F9018958081CE
:100AE000F4CF1F920F920FB60F9211242F933F93C2
:100AF0004F935F936F937F938F939F93AF93BF9326
:100B0000EF93FF938091B900887F803609F44AC043
:100B1000F0F5883209F4A7C018F5803109F49BC0BC
:100B2000B8F4882309F4F9C0883009F494C0FF911F
:100B3000EF91BF91AF919F918F917F916F915F9155
:100B40004F913F912F910F900FBE0F901F901895CE
:100B5000883109F488C0803251F78093450214C06F
:100B6000803409F49DC040F48033B9F38833F9F63A
:100B70008093450285ECB0C0803509F485C0883586
:100B800009F496C0883499F60E947804D0CF883949
:100B900009F48CC038F5883729F050F4883611F004
:100BA000803729F683E0809346021092440257C0B2
:100BB000883809F47BC0803919F0803809F0B7CF44
:100BC00080914402803208F071C0E091440281E0DB
:100BD0008E0F809344028091BB00F0E0EC5DFD4FEE
:100BE00080833DC0803B39F0E0F4803A09F479C05D
:100BF000883A09F09CCF84E0809346021092230249
:100C000010922202E0916E02F0916F02099580919C
:100C1000220281110FC081E0809322021092020211
:100C200009C0803C09F4A6CF883C09F4A3CF883BD7
:100C300009F07DCFE091230281E08E0F80932302A3
:100C4000F0E0EE5FFD4F80818093BB009091230226
:100C50008091220229C080916B028093BB0085ECB9
:100C60008093BC0064CF90916A02809169029817CA
:100C700058F5E0916A0281E08E0F80936A02F0E0FD
:100C8000E75BFD4F8081E9CFE0916A0281E08E0F42
:100C900080936A028091BB00F0E0E75BFD4F8083A8
:100CA00090916A02809169029817C8F285E8D8CFBE
:100CB000E0916A0281E08E0F80936A028091BB000E
:100CC000F0E0E75BFD4F80838091480281115CCFAB
:100CD00081E08093470284EA8093BC001092460230
:100CE00026CF85EC8093BC0010924602809144028E
:100CF000803230F4E0914402F0E0EC5DFD4F108270
:100D00006091440270E0E0916C02F0916D0284E227
:100D100092E00995109244020ACF1092450234CF16
:100D2000EFE9F2E01382128288EE93E0A0E0B0E0F7
:100D300084839583A683B7832AE031E031832083BF
:100D400025EC30E03587248724EC30E03787268790
:100D500020EC30E0318B208B21EC30E0338B228B88
:100D600022EC30E0358B248B26EC30E0378B268B61
:100D7000118E128E138E148EECE3F3E01382128226
:100D800084839583A683B7838CE191E091838083EC
:100D90000895CF93DF93CDB7DEB728970FB6F894B9
:100DA000DEBF0FBECDBF789484B5826084BD84B5AC
:100DB000816084BD85B5826085BD85B5816085BD56
:100DC00080916E00816080936E001092810080910E
:100DD0008100826080938100809181008160809396
:100DE0008100809180008160809380008091B100BB
:100DF00084608093B1008091B00081608093B000E6
:100E000080917A00846080937A0080917A00826079
:100E100080937A0080917A00816080937A0080913B
:100E20007A00806880937A001092C100E091AF024E
:100E3000F091B00282E08083E091AB02F091AC02CD
:100E40001082E091AD02F091AE028FEC808310929F
:100E5000B702E091B302F091B40286E08083E091A2
:100E6000B102F091B202808180618083E091B10291
:100E7000F091B202808188608083E091B102F091AC
:100E8000B202808180688083E091B102F091B20269
:100E900080818F7D80831092730210927202109273
:100EA0007102109270020E94AE0288E391E090936A
:100EB0006F0280936E0289E391E090936D028093BC
:100EC0006C0289E391E00E94660368EB7BE080E0BE
:100ED00090E00E94050187E591E0282E880F3308F5
:100EE00002E310E08EE00E94CE00BC01990F880B57
:100EF000990B0E949F0920917402309175024091D4
:100F00007602509177020E94F70A2B013C01409231
:100F100074025092750260927602709277028FE0AE
:100F20000E94CE00BC01990F880B990B0E949F096B
:100F3000209178023091790240917A0250917B029F
:100F40000E94F70A4B015C0180927802909279022C
:100F5000A0927A02B0927B0280E10E94CE00BC0196
:100F6000990F880B990B0E949F0920917C02309168
:100F70007D0240917E0250917F020E94F70A6B0130
:100F80007C01C0927C02D0927D02E0927E02F092BF
:100F90007F0264E170E080E090E00E940501015072
:100FA000110909F09FCF20E030E048E452E4C3018A
:100FB000B2010E94630B2AE038E240EA5BE30E9440
:100FC000FE092B013C0140928802509289026092F6
:100FD0008A0270928B0220E030E048E452E4C501BE
:100FE000B4010E94630B2AE038E240EA5BE30E940E
:100FF000FE094B015C0180928C0290928D02A092BE
:101000008E02B0928F0220E030E048E452E4C70143
:10101000B6010E94630B2AE038E240EA5BE30E94DB
:10102000FE096093900270939102809392029093D4
:10103000930210927402109275021092760210922E
:101040007702109278021092790210927A0210922E
:101050007B0210927C0210927D0210927E0210920E
:101060007F02A30192010E94F60A2DE43CE843E2CC
:1010700054EC0E94FE096093840270938502809371
:10108000860290938702A3019201C501B4010E94D8
:10109000F60A21EC3AEC41E45FE30E94FE0960931A
:1010A00080027093810280938202909383028FE981
:1010B00092E00E94D801181619060CF07BC01A8223
:1010C00019821C821B821E821D8270E060E0CE01AC
:1010D00001960E94500429813A8181112EC0211568
:1010E000310519F0C9010E94D20C1A8219821E82A0
:1010F0001D821C821B820E948A010D811E8197FD28
:1011000024C08215930509F18F8318860F5F1F4F46
:10111000B801CE0101960E945004882361F3298111
:101120003A818D819E81BE01695F7F4F820F931F3F
:101130000E942A0E1E830D83DECF1E821D826CE26A
:1011400071E0C9010E942A0ED6CFC980DA80C1148D
:10115000D10429F076010115110509F095C04D81E2
:101160005E8169817A818FE992E00E943A018AE288
:1011700091E00E9415038D819E81892B09F4CAC0DC
:1011800009811A8169E571E0C8010E94210E892B4D
:1011900009F0B0C08FE591E00E94660381E090E025
:1011A000909395028093940289819A81009711F01F
:1011B0000E94D20C8091940290919502892B09F49F
:1011C0004FC08AE991E00E941503609190027091EE
:1011D0009102809192029091930243E00E947403E5
:1011E00083EA91E00E94150360918C0270918D0258
:1011F00080918E0290918F0243E00E94740380EBF5
:1012000091E00E941503609188027091890280919B
:101210008A0290918B0243E00E9474038EEB91E06E
:101220000E9415036091840270918502809186026C
:101230009091870241E00E9474038BEC91E00E9440
:1012400015036091800270918102809182029091D9
:10125000830246E00E94740387ED91E00E946603DA
:1012600064EF71E080E090E00E940501E0E0F0E0D2
:10127000EF2B09F435CE0E94E401882309F430CE27
:101280000E9400002DCE750157018FEFA81AB80AF1
:10129000F7018081082E000C990B0E948F09892B81
:1012A00091F7015011090C0D1D1DF8018081082EC8
:1012B000000C990B0E948F09892B31F00E151F0528
:1012C00018F001501109F1CF0F5F1F4FA8014E19FF
:1012D0005F095E834D83CE14DF0420F4B701C6019D
:1012E0000E94180EE981FA818D819E81E80FF91F15
:1012F000108235CF67E771E0C8010E94210E892B6B
:1013000049F48CE791E00E946603109295021092D6
:1013100094024ACF83E991E00E94660345CF911180
:101320000C946B0A803219F089508550C8F70895E3
:101330000E94DA0908F481E00895E89409C097FB57
:101340003EF490958095709561957F4F8F4F9F4F9C
:101350009923A9F0F92F96E9BB279395F6958795E0
:1013600077956795B795F111F8CFFAF4BB0F11F4A3
:1013700060FF1BC06F5F7F4F8F4F9F4F16C088234A
:1013800011F096E911C0772321F09EE8872F762F80
:1013900005C0662371F096E8862F70E060E02AF0C1
:1013A0009A95660F771F881FDAF7880F96958795AD
:1013B00097F90895990F0008550FAA0BE0E8FEEF82
:1013C00016161706E807F907C0F012161306E40709
:1013D000F50798F0621B730B840B950B39F40A2602
:1013E00061F0232B242B252B21F408950A2609F4E0
:1013F000A140A6958FEF811D811D08950E94110ABD
:101400000C94850A0E94770A38F00E947E0A20F028
:10141000952311F00C946E0A0C94740A11240C9408
:10142000B90A0E94960A70F3959FC1F3950F50E098
:10143000551F629FF001729FBB27F00DB11D639F86
:10144000AA27F00DB11DAA1F649F6627B00DA11D2C
:10145000661F829F2227B00DA11D621F739FB00DD2
:10146000A11D621F839FA00D611D221F749F332742
:10147000A00D611D231F849F600D211D822F762FDB
:101480006A2F11249F5750409AF0F1F088234AF0B8
:10149000EE0FFF1FBB1F661F771F881F9150504024
:1014A000A9F79E3F510580F00C946E0A0C94B90A7E
:1014B0005F3FE4F3983ED4F3869577956795B795AB
:1014C000F795E7959F5FC1F7FE2B880F911D9695C5
:1014D000879597F9089599278827089597F99F6721
:1014E00080E870E060E008959FEF80EC08950024AC
:1014F0000A941616170618060906089500240A9479
:1015000012161306140605060895092E0394000CFE
:1015100011F4882352F0BB0F40F4BF2B11F460FF8D
:1015200004C06F5F7F4F8F4F9F4F089557FD9058B6
:10153000440F551F59F05F3F71F04795880F97FB97
:10154000991F61F09F3F79F0879508951216130651
:101550001406551FF2CF4695F1DF08C01616170680
:101560001806991FF1CF86957105610508940895B5
:10157000E894BB2766277727CB0197F908952F9228
:101580003F924F925F926F927F928F929F92AF9213
:10159000BF92CF92DF92EF92FF920F931F93CF9360
:1015A000DF93CDB7DEB7CA1BDB0B0FB6F894DEBFF7
:1015B0000FBECDBF09942A88398848885F846E841D
:1015C0007D848C849B84AA84B984C884DF80EE8067
:1015D000FD800C811B81AA81B981CE0FD11D0FB670
:1015E000F894DEBF0FBECDBFED0108955058BB2764
:1015F000AA270E940E0B0C94850A0E94770A38F0E5
:101600000E947E0A20F039F49F3F19F426F40C94CE
:10161000740A0EF4E095E7FB0C946E0AE92F0E9421
:10162000960A58F3BA17620773078407950720F0E4
:1016300079F4A6F50C94B80A0EF4E0950B2EBA2FA7
:10164000A02D0B01B90190010C01CA01A0011124C8
:10165000FF27591B99F0593F50F4503E68F11A1674
:10166000F040A22F232F342F4427585FF3CF469505
:1016700037952795A795F0405395C9F77EF41F1627
:10168000BA0B620B730B840BBAF09150A1F0FF0FF1
:10169000BB1F661F771F881FC2F70EC0BA0F621FDD
:1016A000731F841F48F4879577956795B795F795CD
:1016B0009E3F08F0B0CF9395880F08F09927EE0F62
:1016C0009795879508950E94770B0C94850A0E9440
:1016D0007E0A58F00E94770A40F029F45F3F29F013
:1016E0000C946E0A51110C94B90A0C94740A0E945D
:1016F000960A68F39923B1F3552391F3951B550B83
:10170000BB27AA2762177307840738F09F5F5F4FD4
:10171000220F331F441FAA1FA9F335D00E2E3AF013
:10172000E0E832D091505040E695001CCAF72BD02B
:10173000FE2F29D0660F771F881FBB1F261737077C
:101740004807AB07B0E809F0BB0B802DBF01FF27AE
:1017500093585F4F3AF09E3F510578F00C946E0A13
:101760000C94B90A5F3FE4F3983ED4F386957795DD
:101770006795B795F7959F5FC9F7880F911D969567
:10178000879597F90895E1E0660F771F881FBB1FC3
:10179000621773078407BA0720F0621B730B840B70
:1017A000BA0BEE1F88F7E09508950E949E0A88F014
:1017B0009F5798F0B92F9927B751B0F0E1F0660F15
:1017C000771F881F991F1AF0BA95C9F714C0B13056
:1017D00091F00E94B80AB1E008950C94B80A672FFE
:1017E000782F8827B85F39F0B93FCCF38695779585
:1017F0006795B395D9F73EF490958095709561956E
:101800007F4F8F4F9F4F08950E94DA0908F48FEFA2
:1018100008950E94DA09880B990B0895A1E21A2E07
:10182000AA1BBB1BFD010DC0AA1FBB1FEE1FFF1F84
:10183000A217B307E407F50720F0A21BB30BE40BD4
:10184000F50B661F771F881F991F1A9469F760951B
:101850007095809590959B01AC01BD01CF010895D5
:10186000EE0FFF1F0590F491E02D09940F931F9345
:10187000CF93DF938230910510F482E090E0E09105
:101880004A03F0914B0330E020E0B0E0A0E0309755
:1018900099F42115310509F44AC0281B390B24306D
:1018A0003105D8F58A819B816115710589F1FB01AC
:1018B00093838283FE0111C0408151810281138193
:1018C00048175907E0F04817590799F4109761F045
:1018D00012960C93129713961C933296CF01DF91B8
:1018E000CF911F910F91089500934A0310934B03DA
:1018F000F4CF2115310551F04217530738F0A901F3
:10190000DB019A01BD01DF01F801C1CFEF01F9CF81
:1019100090934B0380934A03CDCFFE01E20FF31F58
:10192000819391932250310939832883D7CF209115
:10193000480330914903232B41F420910201309157
:101940000301309349032093480320910001309113
:1019500001012115310541F42DB73EB74091040135
:1019600050910501241B350BE0914803F091490388
:10197000E217F307A0F42E1B3F0B2817390778F066
:10198000AC014E5F5F4F2417350748F04E0F5F1FC5
:101990005093490340934803819391939FCFF0E084
:1019A000E0E09CCFCF93DF930097E9F0FC01329702
:1019B00013821282A0914A03B0914B03ED0130E0F3
:1019C00020E01097A1F420813181820F931F209194
:1019D0004803309149032817390709F061C0F09393
:1019E0004903E0934803DF91CF910895EA01CE17B0
:1019F000DF07E8F54A815B819E0141155105B1F78A
:101A0000E901FB83EA8349915991C40FD51FEC1773
:101A1000FD0761F4808191810296840F951FE90191
:101A200099838883828193819B838A83F0E0E0E0BD
:101A300012968D919C9113970097B9F52D913C9139
:101A40001197CD010296820F931F20914803309188
:101A500049032817390739F6309751F510924B038F
:101A600010924A03B0934903A0934803BCCFD38399
:101A7000C28340815181840F951FC817D90761F433
:101A80004E5F5F4F88819981480F591F5183408372
:101A90008A819B81938382832115310509F0B0CF20
:101AA000F0934B03E0934A039ECFFD01DC01C0CFCE
:101AB00013821282D7CFB0E0A0E0E1E6FDE00C9403
:101AC000C10A8C01009751F4CB010E94360C8C01A5
:101AD000C801CDB7DEB7E0E10C94DD0AFC01E60FEA
:101AE000F71F9C0122503109E217F30708F49DC04B
:101AF000D901CD91DC911197C617D70798F0C53061
:101B0000D10530F3CE0104978617970708F3C61B5B
:101B1000D70B2297C193D1936D937C93CF010E94F1
:101B2000D20CD6CF5B01AC1ABD0A4C018C0E9D1EA7
:101B3000A0914A03B0914B03512C412CF12CE12C84
:101B4000109731F5809148039091490388159905C4
:101B500009F05CC04616570608F058C08091000195
:101B600090910101009741F48DB79EB74091040117
:101B700050910501841B950BE817F90708F055C033
:101B8000F0934903E0934803F90171836083A0CF88
:101B90008D919C91119712966C90129713967C9050
:101BA0001397A815B90559F56C0142E0C40ED11C74
:101BB000CA14DB0420F1AC014A195B09DA01129660
:101BC000159780F06282738251834083D9016D93AF
:101BD0007C93E114F10471F0D7011396FC93EE931A
:101BE000129776CF22968C0F9D1FF90191838083E7
:101BF000F301EFCFF0934B03E0934A0369CF48160C
:101C0000590608F42C017D01D3019ACFCB010E9423
:101C1000360C7C01009749F0AE01B8010E94180E05
:101C2000C8010E94D20C870153CF10E000E050CFD2
:101C3000FB01DC0102C001900D9241505040D8F7E9
:101C40000895FB01DC018D91019080190110D9F3F9
:101C5000990B0895FB01DC0101900D920020E1F742
:061C60000895F894FFCF87
:101C660000004C038000000000001A023A016701E0
:101C76006702D8017601CA01000000000103F602DE
:101C86001203CC02EF02DC02CD020D0A006E616E79
:101C960000696E66006F76660043415554494F4EA3
:101CA6003A204849474820564F4C5441474520530F
:101CB600595354454D21000D0044454255470045B2
:101CC6006E746572696E67206465627567206D6FF4
:101CD60064652E2E2E0A0053544F500045786974C1
:101CE600696E67206465627567206D6F64652E2E68
:101CF6002E0A004552524F520A00565F766D6F6E9D
:101D06003A200020562C20565F696D6F6E3A2000EF
:101D160020562C20565F76736574303A2000205684
:101D26002C2048565F4F75743A200020562C2049C7
:0C1D36005F4F75743A2000206D410000E2
:00000001FF
