:020000040800F2
:1000000000000120116000086160000861600008C4
:100010006160000861600008616000080000000085
:100020000000000000000000000000006160000807
:10003000616000080000000061600008574D000882
:10004000616000086160000861600008616000088C
:100050006160000861600008314E0008374E0008FA
:100060003D4E0008434E0008494E000861600008FC
:10007000616000086160000861600008616000085C
:10008000616000086160000861600008616000084C
:1000900000000000616000084F4E00086160000829
:1000A0001D4B000861600008314B0008354B00080B
:1000B000494B00085D4B000835110008411100084C
:1000C0004D110008591100086160000861600008C6
:1000D0003D5600085556000871560008616000083A
:1000E00061600008774E00086160000861600008E8
:1000F000616000080000000000000000616000086E
:100100006511000871110008616000086160000855
:1001100061600008616000086160000861600008BB
:1001200061600008616000086160000861600008AB
:08013000616000086160000835
:10013800034613F8012B002AFBD1181A013870471F
:1001480053B94AB9002908BF00281CBF4FF0FF3136
:100158004FF0FF3000F00CB8ADF1080C6DE904CE9B
:1001680006F09EF9DDF804E0DDE9022304B07047EB
:10017800704700BF10B5054C237833B9044B13B151
:100188000448AFF300800123237010BD5C010020F8
:10019800000000003C68000808B5034B1BB1034988
:1001A8000348AFF3008008BD000000006001002094
:1001B8003C68000838B52049204805F0C5FE0025F0
:1001C80001241F48214600F068F81D4800F06DF82A
:1001D800F0B91C49194805F0A1FE0F2C03D81A499B
:1001E800164805F09BFE15481022214605F0D7FE5B
:1001F80001350134E4B27F2CE3D1DDB913490F484E
:1002080005F0A2FEBDE8384041F2883005F090BF05
:100218000428EED10E49094805F080FE0F2C03D8BA
:100228000949064805F07AFE10222146034805F0E0
:10023800B6FEDEE70749E2E760680008E003002051
:10024800780100206C6800088B680008A96800081D
:100258008D680008BE68000808B5084840F21342D7
:100268004FF4E13105F0D8FD0548002100F052FBBC
:10027800BDE808400349014805F066BEE0030020D8
:1002880078010020C368000800207047036810B494
:100298009C6B0123A44610BC60470123994080F859
:1002A80024300023817643847047036801211B6B47
:1002B8001847028BC08A101A7047C28A018B914274
:1002C80088BF0169034683BF885C0132DA824FF038
:1002D800FF307047028BC38A9A4286BF0269D05C9E
:1002E8004FF0FF30704738B50446283000F074FDF1
:1002F800E06918B105F04AFF0023E3612069002591
:10030800258410B105F042FF2561A58238BD0000A3
:1003180038B5044600F12805284600F0ADFD94F8EC
:10032800BE304BB92846054900F08EFE28460449E0
:10033800BDE8384000F081BE38BD00BF4D0300085D
:1003480045060008806DD0F8DC302BB100234384CB
:10035800D0F8E030D43018477047012A02D1016044
:1003680000207047022A05D0032AF9D0002AF7D1C5
:100378000260F5E70B680360F2E703681847012A93
:1003880002D1016000207047022A05D0032AF9D063
:10039800002AF7D10260F5E70B680360F2E703680B
:1003A80008681847836810B5044613B1032201464C
:1003B8009847204610BD000030B587B0024602AB12
:1003C800002002900590C3E9010021B10291114972
:1003D80005911149049193E8030002F1D404CDE991
:1003E800000194E8030083E80300DDE9000184E8E4
:1003F80003000499D2F8DC000490C2F8DC10D2F8AB
:10040800E0000599C2F8E01005901846FFF7CAFF0A
:1004180007B030BD830300086303000830B587B018
:10042800024602AB002002900590C3E9010021B109
:100438000291114905911149049193E8030002F1D1
:10044800C404CDE9000194E8030083E80300DDE972
:10045800000184E803000499D2F8CC000490C2F8A3
:10046800CC10D2F8D0000599C2F8D01005901846E3
:10047800FFF798FF07B030BDA703000887030008FF
:1004880070B54FF47A730E460021C0E90113034694
:1004980015462B4A43F8C42B0446C0F8C4109C22C6
:1004A800C3E90111C0E93411C0E93611C0F8E01000
:1004B800283005F057FFF3B21A2B19D8214A52F801
:1004C800233006F4E0661E43EBB21A2BC4F88460AE
:1004D80022D81C4A52F8233005F4E0651D43002356
:1004E800C4F88850E36123842361A382204670BD49
:1004F80006F0C002C02A0CD1C72B0AD8124B06F04E
:100508003F0206F4E06653F822200E4B53F82230DF
:10051800D9E74FF0FF36D7E705F0C002C02A0CD163
:10052800C72B0AD8084B05F03F0205F4E06553F8DD
:100538002220044B53F82230D0E74FF0FF35CEE7A6
:10054800DC680008006D0008E06C000838B5054656
:10055800074B45F8D43B0446FFF7C5FE2846FFF78E
:1005680021FF04F1C400FFF71DFF204638BD00BF7E
:10057800DC68000838B5838A8B4205460C4609D2E8
:10058800202938BF20240069214605F0B5FE10B1A6
:100598002861AC8238BDFEE72DE9F843984690F80B
:1005A800BE309DF820509DF8249004460F4616460C
:1005B800002B38D01146FFF7DDFF85B12368394697
:1005C800DB6A20469847032D28BF0325013DEDB27D
:1005D800FF2D23681CD11B6B002120469847B9F1D9
:1005E800000F1DD1AA23B5B27900A36522692B4655
:1005F80001F0FE0104F1280000F068FC0023984295
:100608001CBF1E463546E38225833046BDE8F88385
:10061800E90028FA01F11B68C9B220469847D5E7D6
:100628004FF42A43DFE71846F0E707B501930023A4
:100638000093FFF7B1FF03B05DF804FB73B5846D59
:10064800866ED4F8CC300546E3B1E28A238B9A4211
:1006580018D331462046FFF78DFF2069324605F151
:10066800740105F0BDFE0023E382D4F8CC30268364
:1006780001960BB906F090F8D4F8D03001A904F12E
:10068800C400984702B070BDB1F5806F70B50546DB
:100698000C4610D8038C99420AD920290E4638BF37
:1006A8002026C069314605F027FE18B1E8612E847E
:1006B800204670BDFEE70024FAE713B590F8243011
:1006C8008DF8071004467BB1418C0131FFF7DCFF40
:1006D80040B1638CE2699DF80710D154638C0133F3
:1006E8006384012002B010BD01220DF107012830FA
:1006F80000F0D2FBB0FA80F04009F3E770B590F84B
:10070800243004460E46154693B1418C1144FFF738
:10071800BBFF10B90025284670BD638CE0692A46E6
:100728001844314605F05CFE638C2B446384F2E781
:1007380092B2283000F0B0FB0028EBD1EBE703467B
:10074800006918B19A8A002105F00CBE704703466B
:10075800C06918B11A8C002105F004BE704738B57D
:100768000446C1B9AA23A36594F8BE30B3B1638C1B
:10077800E269A17E04F1280000F00EFC042828BFDD
:100788000420C5B22046FFF7E2FF0023638484F803
:100798002430284638BD4FF42A43E4E70425F8E717
:1007A80038B504460025C5820583FFF7C8FF658470
:1007B8002046FFF7CCFF38BD2DE9F0410446D0F8BC
:1007C800840005F009FC002105F048FCD4F88430C9
:1007D80013F0C00F41D1C3F30312254E254D56F82F
:1007E800222003F00F03126955F8233093433DD0BC
:1007F800D4F8880005F0F0FB012105F02FFC142740
:10080800D4F8883013F0C0082AD1C3F3031203F0D8
:100818000F0356F8222055F8233093620A2005F07A
:1008280095FCD4F8883013F0C00F1CD1C3F3031221
:1008380003F00F0356F8222055F8233093610A205D
:1008480005F084FC013FDBD1D4F8880005F0C4FB37
:100858003946BDE8F04105F001BC00231B69FFDE05
:1008680000239B62FBE7C8F81880F8E7BDE8F08131
:1008780008000020906900082DE9F0410446002591
:10088800C58205831F460E469046FFF758FF6584CC
:10089800A5762046FFF75BFFD4F8DC30C4F880402B
:1008A80033B104F1D401032208469847C4E9375507
:1008B8000023012E84F824304FEA460384F82530BB
:1008C8000CBF0123002384F8BE3084F8BF8084F86D
:1008D800C07002D12046FFF76FFF04F1280594F895
:1008E80025200949284600F0C5F994F8BE304BB9CF
:1008F8002846064900F0A8FB28460549BDE8F0410E
:1009080000F09BBBBDE8F081A08601004D03000804
:10091800450600080A4600230121FFF7ADBF002164
:10092800FFF7F8BF00231A46FFF7A6BF02480822C0
:10093800C021FFF7A5BD00BF780100200148FFF7DF
:1009480005BE00BF780100204FF0B04382B09A6D19
:1009580002439A659B6D03400193019B02B0704767
:100968002DE9F04F764B53F8312082429BB007D1E6
:1009780003EBC102D2F804E0BEF1000F40F0DB80C7
:100988001C22704C704D43F831004A4304EB50036D
:10099800B3FBF0F0AB18AA589E7E04EB5205B5FBEA
:1009A800F2F2DD8A0495049F1D8A0B921A8B0C9231
:1009B8003D4411950C9F9D89F21C3D444243323DB4
:1009C800AD1A25EAE575049F0595DD89ED1BA5F5AA
:1009D80082750244AA1A22EAE272069200FB06F223
:1009E80007925A68B4FBF2F212929A68B4FBF2F2D8
:1009F8001392079A02EB400232320F9284180B9A34
:100A08000D92002510220E9208954FF0FF3EEAB293
:100A180010920F9A2E07A21A189600260A92039689
:100A2800119E0A9FBE4276D8039E189F3E43179692
:100A38000026CDE90166424E06EBC1061996059ED1
:100A4800019FBE425DD8069EBE425AD30E9E109F9D
:100A5800BE4256D0089F0137072F08976BD85E8A89
:100A68000C9F1496049E37443E190996079E029FD0
:100A7800A4EB0608179E3E4316960027079E06EB32
:100A8800080C149E664534D2A8F1320CB0EB9C0FCA
:100A98002FD2099E06EB040C169E3E431596A246DD
:100AA8004FF00009139E66451CD8129E664519D35F
:100AB800B3F814B0DA4515D3504513D20B9EACEBFE
:100AC800060BBBF1000F0D9EB8BFCBF1000BB34571
:100AD80008D2159E49EA060E199EC6F804E0109E33
:100AE800CDE90DB609F58079B9F5803F9444924473
:100AF800D8D1099E01371644B7F5807F09969044EE
:100B0800BCD1019E16440196029E06F58036B6F5C4
:100B1800801F029693D10A9E16440A96039E06F5F4
:100B28008016B6F1807F03967FF47AAF0135102DD9
:100B380004447FF46CAF70461BB0BDE8F08F00BF73
:100B48006802002000CA9A3B2469000808B52F4BA8
:100B5800984218D1402002F085FB00284CD14FF074
:100B6800B0432B49D3F88820130903F4407343F4A6
:100B780040338B423ED001F580718B4241D012F454
:100B8800405F3AD0FEE7234B984217D1802002F00D
:100B980069FB88BB4FF0B0431F49D3F8882013097D
:100BA80003F4406343F440238B4223D001F5806172
:100BB8008B4226D012F4404F1FD0FEE7174B9842C5
:100BC80021D14FF4807002F04DFBA8B94FF0B0432B
:100BD8001349D3F88820130903F4405343F440130E
:100BE8008B4207D001F580518B420AD012F4403F66
:100BF80003D0FEE70B4B186808BDBDE8084002F0BB
:100C0800ADBA0948F8E70020F6E700BF00540040F5
:100C1800000103000058004000040C00005C004084
:100C2800001030003C0000200024F40008B50E4BF2
:100C3800994212D90D4B994207D80068FFF786FFF1
:100C48000121BDE80840FFF78BBE094B994209D83E
:100C58000068FFF77BFF0221F3E70068FFF776FFE4
:100C68000021EEE7002008BDA0860100801A0600DA
:100C780040420F00F8B50F4615460446002800F01C
:100C88009D804F49C06D04F03BFA4E490646206EE0
:100C980004F036FA0146002E00F09080002800F09B
:100CA8008D80304604F053FA2060002800F08680DA
:100CB800454B984204F104064CD11E2384F8643055
:100CC8004FF40010FFF740FE4FF0B0439A6B024319
:100CD8009A639A6B22F400129A631F2384F8653092
:100CE8003A4B1E603749206E04F0F2F93449E06D42
:100CF80004F0EEF92368636039462046FFF796FF53
:100D08000123C4E902050025C4E9043594F89730A5
:100D180094F96400A561DB04236294F8983084F8A0
:100D280045505B0463622A46022100F085FA94F973
:100D3800640000F0B3FA94F965002A46022100F035
:100D48007BFA94F9650000F0A9FA304600F03FFDFF
:100D580080B3FEE71E4B984215D1202384F86430F7
:100D68004FF48000FFF7F0FD4FF0B0439A6B024359
:100D78009A639A6B22F480029A63212384F865307F
:100D8800124B5E60AEE7134B9842ABD14FF40000B4
:100D9800FFF7DAFD4FF0B0439A6B02439A639A6B00
:100DA80022F400029A6343F23013A4F86430074B2C
:100DB8009E6097E70223A06684F89530F8BD00BFCF
:100DC800686C0008146C0008005400405C020020A5
:100DD80000580040005C004010B5044690F96400DB
:100DE80000F06AFA94F9650000F066FA201D00F038
:100DF80044FD206E032104F0D1F8E06D032104F0D6
:100E0800CDF82368194A93420ED14FF0B0439A6B3C
:100E180042F400129A639A6B22F400129A639A6D54
:100E280022F400129A6510BD114A93420DD14FF079
:100E3800B0439A6B42F480029A639A6B22F4800260
:100E48009A639A6D22F48002ECE70A4A9342EAD147
:100E58004FF0B0439A6B42F400029A639A6B22F403
:100E680000029A639A6D22F40002DBE70054004006
:100E780000580040005C004010B50446FFF7D6FE5D
:100E880023681A6822F001021A6018611A68A060C3
:100E980042F001021A6010BD202A30B514D8002390
:100EA8009CB2A24207D890F894301344DBB280F881
:100EB8009430002030BD90F89440CD5C1C4404442C
:100EC800013384F87450EBE70120F3E72DE9F34789
:100ED80005460F469046994600F096F90024D5F845
:100EE80030A006460435CDF800A04B4642463946A8
:100EF800284600F0C5FD022806D100F085F9841BBC
:100F0800642CF0D906201FE008BB00F07DF90646E6
:100F1800284601F090FC202809D0632C07D800F05F
:100F280073F9841B284601F089FC0028F0D0284674
:100F380001F084FC632C0CD882060AD443070AD437
:100F4800003818BF0120800002B0BDE8F0870420F7
:100F5800FAE70520F8E70320F6E710B5642304460E
:100F6800043000F0A3FC022810D0032806D090B16A
:100F780094F84530202B18BF042004E094F845303D
:100F8800202B18BF052008BF022004E094F8453044
:100F9800202B18BF062010BD2DE9F34704460E4646
:100FA80091461F4600F030F980463FB9012231468C
:100FB800204602B0BDE8F047FFF7CFBFD4F830A015
:100FC80000250434CDF800A03B464A463146204669
:100FD80000F0ECFC022807D100F016F9A0EB080598
:100FE800642DEFD906201FE008BB00F00DF9064676
:100FF800204601F020FC202809D0632D07D800F0F6
:1010080003F9851B204601F019FC0028F0D0204682
:1010180001F014FC632D0CD882060AD443070AD4C5
:10102800003818BF0120800002B0BDE8F087042016
:10103800FAE70520F8E70320F6E720B119B1C16601
:10104800043000F033BE704720B119B10167043095
:1010580000F02CBE704770B590F89130012B044613
:101068000E46A0F1040509D1436E3BB1836E2846B4
:101078009847022384F8913000236366012E4FF0CD
:10108800000312D1E26E84F891301AB184F89030DE
:101098002846904794F8902004F1700120464FF0BC
:1010A8000073BDE8704000F03DBD0122636684F81E
:1010B8009120616E7431294420464FF08073BDE859
:1010C800704000F091BD10B590F89130012B0446A6
:1010D80004D1436E13B1836E04389847022384F811
:1010E8009130002363662046BDE8104000F0DEBD65
:1010F800436E1F2BDEBF436E0133436690F8913079
:10110800012BDAB206D1416E70314FF08073014481
:1011180000F06ABD7047002380F89030704790F85F
:1011280092300BB100F0C2BD70470000014B186847
:1011380000F0D0BD5C020020014B186801F061B9D5
:101148005C020020014B586800F0C4BD5C0200201E
:10115800014B586801F055B95C020020014B9868B2
:1011680000F0B8BD5C020020014B986801F049B955
:101178005C0200207047000038B5104C2378054603
:101188000BB9012038BD01F05FFC22784FF47A7367
:10119800B3FBF2F3B0FBF3F000F0A0F8044600282C
:1011A800EFD10F2DEDD8024629464FF0FF3000F061
:1011B80043F8034B20461D60E4E700BF0000002011
:1011C8000400002010B5032000F024F801F03CFCD6
:1011D800064B18600020FFF7CFFF044618B9FFF749
:1011E800C9FF204610BD0124FBE700BF3C000020DA
:1011F800034A044B11681B780B441360704700BF07
:101208008002002000000020014B1868704700BFD2
:10121800800200200749CA6822F4E062030212042F
:1012280003F4E063120C134343F0BF6343F4003349
:10123800CB60704700ED00E0164B30B5DC68C4F3B6
:101248000224C4F10703251D042B28BF0423062DFF
:101258004FF0FF358CBF033C002405FA03F321EA65
:101268000303A54022EA0502A340002843EA02033B
:10127800ACBF00F16040084A4FEA0313B8BF00F062
:101288000F00DBB2AABF00F56140135480F80033A9
:1012980030BD00BF00ED00E014ED00E0002807DBE2
:1012A800044A4109012300F01F00834042F821301D
:1012B800704700BF00E100E000280CDB4309064945
:1012C80000F01F0020330122824041F82320BFF3A1
:1012D8004F8FBFF36F8F704700E100E00138B0F126
:1012E800807F0BD24FF0E023054A5861F02182F845
:1012F80023100020072298611A6170470120704767
:1013080000ED00E0002808DB4309044900F01F0055
:1013180001226033824041F82320704700E100E059
:10132800704708B5FFF7FCFF08BD704710B50446C5
:1013380008B9012010BD437F03F0FF0213B90277FB
:10134800FFF7F3FF022363772379E3B92368134A8E
:101358005A619A6822F018029A6062792368D2B9B1
:101368004FF0FF321A619A68616922F060020A43FD
:101378009A609A68A16922F080020A439A60012360
:1013880063770020D6E7D4E90212204600F008F877
:101398000028E2D0CDE72269E4E700BFB71DC10409
:1013A800CB0710B50BD51E2321FA03F4E40708D5A3
:1013B800102A18D0102A09D862B1082A15D001209D
:1013C80010E0013BF0D2102AF4D1F8E7182AF6D140
:1013D800062BF4D800684161836823F0180313438F
:1013E8008360002010BD072BF3E70F2BF1E710B542
:1013F800044640B10223037103F04EFC0020206133
:101408006071207110BD0120FCE710B5012358B1AF
:10141800046801F01001226803FA01F122EA0102CE
:1014280022600371002010BD1846FCE7034640B156
:1014380090F82520022A06D00422C263002280F8F0
:101448002420012070470268116821F00101116011
:10145800116821F00E011160816C0A6822F4807213
:101468000A60D0E9100202F01C0101228A404260A1
:10147800D3E9132151605A6D32B1116821F480719A
:101488001160D3E9162151600122002083F825203C
:1014980083F82400704708B590F82530022B03D054
:1014A8000423C363012008BD03681A6822F00102FF
:1014B8001A601A6822F00E021A60826C136823F40C
:1014C80080731360D0E9101303F01C0201239340CA
:1014D8004B60D0E913325A60436D33B11A6822F475
:1014E80080721A60D0E916325A60012380F82530DC
:1014F800002380F82430836B03B198470020D2E79B
:1015080090F8250070470000044AD168014208B5E8
:1015180002D0D06003F072FC08BD00BF000800587C
:1015280003689A69910744BF00229A629A69D207B0
:101538005EBF9A6942F001029A61704730B5039D17
:1015480004682B4343EA0243064A6068C1F3090171
:101558000B4342EA555223F0004320EA02000343BA
:10156800636030BDFF63FF03204B426B9A4270B546
:1015780001F001030DB201F0020420D01C4EB2426A
:101588001DD01C4EB2421AD0002DC3F10003B4BFC7
:10159800B822002203F0F203134314B143F0F4031A
:1015A80008E0102902D143F0900303E0202901D17B
:1015B80043F0200301680A6813430B6070BD002DD7
:1015C800C3F10003B4BFB822002203F0F2031343AF
:1015D800002CE3D11029E6D0202902D143F0600382
:1015E800E8E7402908BF43F04003E3E70923000880
:1015F8001D260008E121000811F0010307D090F82A
:10160800413003F02803282B14BFF22342238A0712
:1016180009D590F8412002F02802282A0CBF43F08F
:10162800440343F0F4030A0401680A6848BF43F01E
:10163800B80322EA03030B6070472DE9F8430568F5
:10164800AC6914F0100406468846174670D010237B
:101658000024EB61A1463568AB69980662D4B9F1FC
:10166800000F34D044F004040120AB69D90541BF10
:101678004FF48072EA6144F0010401205A0541BF29
:101688004FF4806244F00804EA6101209B0551D5BB
:101698004FF4007344F00204EB613046FFF740FF5B
:1016A8006B6823F0FF7323F48B3323F4FF7323F069
:1016B80001036B60736C23437364202386F8413005
:1016C800002386F8423086F84030012034E0B8F133
:1016D800FF3FC1D0FFF798FDC01B404502D8B8F1C5
:1016E800000FB8D13368596896F842209869000409
:1016F800D2B20AD5490408D4202A06D05A6842F43E
:1017080080425A60FFF780FD074633689B699D0653
:10171800A1D4FFF779FDC01B1928F6D920244FF072
:10172800010998E7B9F1000F9CD12023EB6199E7F3
:1017380020469AE70028B0D1BDE8F8832DE9F041AA
:10174800DDF8188004460F4616461D4623689B6937
:1017580037EA03030CBF01230023B34201D0002062
:1017680025E0424629462046FFF767FFF0B96B1C83
:10177800ECD0FFF749FDA0EB0800A84201D8002DE6
:10178800E4D123689B6937EA03030CBF01230023D4
:10179800B342DBD1636C43F020036364202384F8F5
:1017A8004130002384F8423084F840300120BDE8FD
:1017B800F081C36AAA2B02D10023C3627047C36AAF
:1017C800B3F52A4FFAD14FF00073F6E7704710B51A
:1017D800044600284ED090F8413003F0FF021BB9B0
:1017E80080F84020FFF7F2FF242384F84130236873
:1017F8001A6822F001021A60626822F070621A61A7
:101808009A6822F400429A60D4E90221012906D19B
:1018180042F400429A605A6822F4006207E042F4F7
:10182800044202299A60F6D15A6842F400625A606A
:101838005A6842F0007242F400425A60DA6822F4B0
:101848000042DA60D4E904210A43A16942EA01228C
:10185800DA60D4E907210A431A601A6842F00102E3
:101868001A6000202023606484F84130206384F8E3
:10187800420010BD0120FCE7704710B5044698B13E
:101888000268242380F84130136823F001031360B1
:10189800FFF7F2FF0020606484F8400084F84100FC
:1018A800206384F8420010BD0120FCE72DE9F043D5
:1018B80085B01D460023039390F84130202B044641
:1018C800174671D103689A6912F400426CD190F8F6
:1018D8004000012868D00120C1F3090684F84000BF
:1018E80046F00078242084F8410048F420586264C7
:1018F800E268012A06BF46F0007242F400524246EE
:101908005A60FFF781FC8146226893699269C3F3A4
:101918004013C2F30012134316D023689A69CDF816
:10192800009012F010022B4624D120212046FFF708
:1019380005FFE8B922682023D36184F8413084F890
:10194800400005B0BDE8F0836B1CDDD0FFF75CFC00
:10195800A0EB0900A84201D8002DD5D1202384F896
:101968004130636C43F020036364002384F8403003
:101978000120E6E7002220212046FFF7DFFE0028AD
:10198800F6D1236810222021DA61D961039A013245
:101998000392039ABA42ABD384F84110636C84F87B
:1019A80040000B436364E3E70220CAE7F7B5044647
:1019B80090F84100089F20285BD194F84000012846
:1019C80057D0012084F84000212084F841001020DD
:1019D80084F84200002060646385274BE7626363F4
:1019E800638D62629BB2FF2B27F0007524D9FF201C
:1019F80020854FF080762DBBD4F800C012F8013B4B
:101A0800CCF8283062620246608D013880B2531EDD
:101A180060852385236B112B04D1AA2F02D0B7F53B
:101A28002A4F11D12046FFF7C4FE638D9BB2FF2BCE
:101A380000D8E66A114B08E0608DE66A80B220851E
:101A48000028D8D10022E5E70023009333466DB97A
:101A5800D2B220460025FFF771FD204684F8405099
:101A68000121FFF781FD284603B0F0BD94F8282036
:101A7800EFE70220F8E700BFAD2000080020008053
:101A880037B50446069894F84150202D44D194F86F
:101A98004050012D40D0012584F84050222584F87B
:101AA8004150102584F84250002565646385E06242
:101AB8001A4B6363638D62629BB2FF2B9BBF638D7E
:101AC8002385FF23E26A88BF2385236B88BF4FF0F5
:101AD8008072122B04D1AA2802D0B0F52A4F09D15E
:101AE8002046FFF766FE638D9BB2FF2B00D8E26AA3
:101AF8000B4B00E00023009320461346002594F882
:101B08002820FFF71BFD204684F840500221FFF7EC
:101B18002BFD284603B030BD0220FBE7AD200008AE
:101B280000240080F8B51F4690F8413003F02803E0
:101B3800282B04460E46154601D00120F8BD01B1F8
:101B48001AB94FF400736364F7E748F20101FFF72D
:101B580053FD90F84030012B40D0012380F84030ED
:101B680090F841302A2B14D10221FFF745FD036874
:101B78001A6810040DD51A68E06B22F400421A6046
:101B880038B1174B8363FFF786FC10B1E06B836BAA
:101B98009847292384F8413020682023002284F8BC
:101BA80042306264436823F4004343606585638D73
:101BB8002385E7620B4B6363836981696662C903A6
:101BC80003D51B0744BF0823C361204684F840207F
:101BD80048F20101FFF7C8FC0020AFE70220ADE79B
:101BE8002928000817270008F8B51F4690F8413043
:101BF80003F02803282B04460E46154601D0012081
:101C0800F8BD01B11AB94FF400736364F7E748F2FD
:101C18000201FFF7F1FC90F84030012B3FD090F81B
:101C280041300121292B80F8401013D1FFF7E4FC43
:101C380003681A6850040DD51A68A06B22F4804214
:101C48001A6038B1174B8363FFF725FC10B1A06BFE
:101C5800836B98472A2384F8413020682023002288
:101C680084F842306264436823F400434360658526
:101C7800638D2385E7620C4B6363836981696662C0
:101C8800C90303D41B0744BF0823C361204684F853
:101C9800402048F20201FFF767FC0020B0E702206D
:101CA800AEE700BF292800081727000808B590F8F4
:101CB8004120202A0AD1282280F84120044A426380
:101CC8004FF40041FFF750FC002008BD0220FCE75C
:101CD800172700080268436B9169126803B1184717
:101CE80070477047704738B5002580F8425090F823
:101CF8004130212B4FF0200380F841300AD11123C5
:101D0800036345630121FFF777FC80F84050FFF734
:101D1800E8FF38BD1223036345630221FFF76CFC1B
:101D280080F84050FFF7DEFFF3E708B503681A684C
:101D3800002180F84210510415D51A6822F4804217
:101D48001A6090F84130292B13D1282380F84130AC
:101D5800212303630121FFF74FFC002380F8403063
:101D6800FFF7D9F908BD1204EBD51A6822F400422E
:101D7800E6E790F841302A2BF4D1282380F8413047
:101D8800222303630221FFF737FC002380F8403049
:101D9800FFF7AEF9E6E790F8412002F02802282A7A
:101DA800F8B5036834D19E69C2689D699968DF688F
:101DB8002D0C022AC6F3004605F0FE051FD185EA60
:101DC800D11515F00605C1F309020ED1816C013158
:101DD8008164816C022907D108218564D96180F862
:101DE80040503146FFF737F9F8BD4FF40041FFF78F
:101DF80003FC002380F8403007F0FE02F1E74FF4BF
:101E08000041FFF7F9FB002380F840302A46E8E755
:101E18000822DA61002380F84030E5E708B5164B60
:101E2800C362202200230363436380F8412080F8C3
:101E380042304B0712D503685A6A436A1A70436ADC
:101E480001334362038D4BB1013B0385438D013B55
:101E58009BB24385436C43F00403436448F2030197
:101E6800FFF7CAFB03681022DA61002380F84030CC
:101E7800FFF729F908BD00BF0000FFFF7047704752
:101E8800704790F84120602A08B54FF0000208D149
:101E9800202180F8411080F840200263FFF7F0FF0E
:101EA80008BD026380F84020FFF739F9F8E7000021
:101EB80070B500223D4D90F8413080F84220C5624F
:101EC8004285426C283B0A43022B044642642AD8C6
:101ED8000321FFF791FB282380F84130344BA06B96
:101EE8006363236B002841D0112B01D0212B3DD1F6
:101EF80023681A68510442BF1A6822F480421A60A3
:101F0800FFF7FEFA01282CD0A06B2A4B836300232D
:101F180084F84030FFF7BFFA002845D0A06B836BE8
:101F2800BDE87040184748F20301FFF765FBFFF76B
:101F3800F7FA90F84130602B11D0202380F8413017
:101F480003689A6995060AD59A69D00605D51022BC
:101F5800DA61626C42F0040262642022DA610023D2
:101F6800BDE72046BDE87040FFF78BBFE06B002857
:101F7800F7D0122B01D0222BF3D123681A68120450
:101F880042BF1A6822F400421A60FFF7B9FA012822
:101F9800E7D0E06B074B8363002384F84030FFF7FA
:101FA8007AFA08B1E06BBAE770BD00BF0000FFFF26
:101FB800172700082928000873B505682023EB6156
:101FC80090F84130212B04460E4635D10121FFF708
:101FD80013FB112323636B6823F0FF7323F48B3304
:101FE80023F4FF7323F001036B6000236363F2069D
:101FF800A3F58033E36205D51023EB61636C43F0EE
:102008000403636494F84130602B05D1730741BF22
:102018006B6ADBB20193019B2046FFF781FA636C80
:1020280094F84120602A00D07BB1616C204602B050
:10203800BDE87040FFF73CBF90F84130222BCAD171
:102048000221FFF7D9FA1223C4E794F84120212A84
:1020580012D1202284F84120236394F8422084F886
:102068004030402A84F8423003D1FFF707FF02B01E
:1020780070BDFFF736FEFAE794F84120222AF6D120
:10208800202284F84120236394F8422084F84030C9
:10209800402A84F8423002D1FFF7F1FEE7E7FFF764
:1020A80021FEE4E773B590F84030012B04460D4655
:1020B800164600F08E800123E90680F8403017D5D7
:1020C800F20615D503681022DA61436C43F0040365
:1020D8004364FFF725FAAA0605D5B30603D52946B2
:1020E8002046FFF769FF002084F8400002B070BD69
:1020F8006B0712D5700710D523685A6A636A1A707D
:10210800636A25F0040501336362238D013B23854F
:10211800638D013B9BB26385DDE76906C5F38013D8
:102128000DD4AA070BD5B00709D5638D9BB2002B38
:10213800D1D0636A226813F8011B9162E4E729068B
:1021480032D57206C7D5638D22689BB203B3208D42
:10215800F0B95168638D9BB2FF2BC1F3090108D90F
:10216800FF2222854FF0807300902046FFF7E6F9A2
:10217800B1E7628DE36A92B213F5803F2285D2B24D
:1021880002D0E36A0090F0E700904FF00073ECE7AC
:1021980053689B0103D42046FFF7A5FD9BE7402128
:1021A8002046FFF785FE96E7002B94D0700692D55F
:1021B800638D9BB2002BF2D123685A6891018AD4AF
:1021C800E26A12F5803FE6D15A6842F480425A60CA
:1021D80081E702208AE7000037B590F84030012BEC
:1021E800044600F08680012380F84030CB0612D5E3
:1021F800D50610D503681022DA61436C43F0040356
:1022080043642021FFF7B0F9FFF78AF9002084F82A
:10221800400003B030BD880708D5930706D523686A
:10222800226D9A624FF0FF332365EFE70D0636D52E
:10223800500634D501212046FFF7DEF91021FFF7BB
:1022480093F9638D9BB233B3638D9BB2FF2B18D97F
:10225800FF25E16C2585002300932A464FF0807303
:1022680089B2FFF76BF9638D5B1B9BB2638594F8AA
:1022780041202368222A1A6830D142F400421A60A9
:10228800C4E7658DE16CADB2258500230093EAB201
:102298004FF00073E4E74021FFF70AFEB6E74B066C
:1022A8001FD555061DD501212046FFF7A5F9102198
:1022B800FFF75AF994F841100F4A104B222918BF1A
:1022C8001346628D92B2FF2A03D9FF25E16C25855A
:1022D800C2E7658DE16CADB22585D7E742F480424F
:1022E800CDE7880692D5930690D52046FFF764FE81
:1022F8008CE702208DE700BF0020008000240080CA
:1023080073B590F84030012B044678D0012380F84B
:102318004030CB0612D5D60610D503681022DA61F4
:10232800436C43F0040343642021FFF71DF9FFF7D2
:10233800F7F8002084F8400002B070BD0D0641D5C2
:1023480050063FD52668336823F040033360638D19
:102358009BB25BB37168638D9BB2FF2BC1F309011C
:1023680018D9FF2525854FF080730022009220465A
:10237800EAB2FFF7E3F8638D5B1B9BB2638594F8C1
:102388004130222B33680CBF43F4004343F48043AD
:102398003360CEE7658DE36AADB213F5803F18BFB1
:1023A800E36A258508BF4FF00073DEE773689A017A
:1023B80003D42046FFF797FCBBE740212046FFF7F0
:1023C80077FDB6E74B0612D5560610D5638D9BB23E
:1023D800002BF2D123685A689501AAD4E26A12F553
:1023E800803FE6D15A6842F480425A60A1E78806E5
:1023F8009FD593069DD52046FFF7DEFD99E702207D
:102408009AE7036899691A6810B4CC0508D51406C8
:1024180006D5446C44F0010444644FF48074DC61D4
:102428004C0508D5140606D5446C44F008044464E9
:102438004FF48064DC61890508D5120606D5426C24
:1024480042F0020242644FF40072DA61416C11F00A
:102458000B0F02D010BCFFF72BBD10BC704700005B
:102468002DE9F0410568D5F80080C76A90F8413039
:102478002022213B04460E46EA61092B0CD8DFE8EE
:1024880003F0056B0B0B0B0B0B71056B48F201018D
:10249800FFF7B2F8212323636B6843F400436B60B2
:1024A8006B6823F0FF7323F48B3323F4FF7323F05B
:1024B80001036B602046FFF733F818F4804F57D0BC
:1024C8002B6823F480432B60A36B1BB11B685B68EC
:1024D8009BB2638572070FD5636A6A6A1A70636A6A
:1024E80001336362238D26F004062BB1013B23855B
:1024F800638D013B9BB26385638D9BB21BB1636C9B
:1025080043F004036364F30611D518F0100F0ED0DE
:10251800638D9BB2002B45D194F84130282B30D1E4
:10252800B7F1007F2DD131462046FFF777FC002315
:1025380084F84230656C6363002D42D0616C20469C
:10254800FFF7B6FC94F84130282B4CD13146204691
:10255800BDE8F041FFF762BC48F20201FFF74CF812
:10256800222398E748F20301FFF746F8002392E791
:1025780018F4004FAED02B6823F400432B60E36BB4
:10258800A3E794F841202368292A4FF01002DA6162
:10259800CDD117F5803FCAD02046FEF7C1FFFFF71F
:1025A800C4FBC4E723681022DA61636C43F00403B8
:1025B800636437F08073BAD1616C2046FFF778FC0A
:1025C800B5E7E36A13F5803F0FD02046FFF7ADFB70
:1025D8000F4BE362202384F8413084F84050256390
:1025E8002046FEF770FDBDE8F08194F8413084F88C
:1025F8004050222B4FF0200384F8413020462563B9
:1026080002D1FEF775FDEEE7FEF785FDEBE700BFAB
:102618000000FFFF70B590F84060C56A012E0446BF
:102628000B4672D0012680F840608E0607D59606C4
:1026380005D5FFF715FF002084F8400070BDDE06C1
:102648005BD5D00659D5C2F3803002F4004252EA75
:1026580000014ED0E16BC9B122B10A685268B2FAE2
:1026680082F25209A16B19B110B10968496809B120
:10267800012A1ED194F84120282A09D1B5F1007FFA
:1026880006D119462046FFF7C9FBD4E70A46E9E711
:1026980094F841202368292A4FF01002DA61CAD140
:1026A80015F5803FC7D02046FEF73AFFFFF73DFB00
:1026B800C1E723681022DA61636C43F004036364A2
:1026C80094F8413035F08072DBB2B4D1213B092B4C
:1026D80008D8DFE803F0050C070707070707050C0C
:1026E80021232363616C2046FFF7E2FBA3E7222343
:1026F800F7E723681022DA619DE719079BD51307CE
:1027080099D52046FFF747FB95E7022096E770B575
:1027180090F84060C56A012E04460B467ED001261B
:1027280080F840608E0607D5960605D5FFF798FE17
:10273800002084F8400070BDD90630D5D6062ED5C5
:10274800628D92B2E2B994F84120282A07D1B5F1F6
:10275800007F04D119462046FFF760FBE8E794F8AC
:1027680041202368292A4FF01002DA61E0D115F5DB
:10277800803FDDD02046FEF7D3FEFFF7D6FAD7E735
:1027880023681022DA61636C43F00403636435F054
:102798008073CDD1616C2046FFF78AFBC8E75807E4
:1027A8001BD5510719D5638D9BB26BB123685A6A43
:1027B800636A1A70636A01336362238D013B238560
:1027C800638D013B9BB26385638D9BB2002BAFD1B8
:1027D80015F5803FACD02046CFE71E0705D510077A
:1027E80003D52046FFF7D7FAA2E79907A0D59307A4
:1027F8009ED5638D9BB26BB1636A226813F8011B87
:1028080091626362638D013B9BB26385238D013BBB
:1028180023858DE735F080738AD1DCE702208AE7CB
:10282800806A836B0BB100229A63C36B0BB10022E1
:102838009A63FFF726BB90F841007047406C7047D9
:10284800024A136843F48073136070470004005809
:10285800024B186800F4C060704700BF00040058BD
:102868004FF0B0431868C0F3404070474FF0B04392
:102878001868C0F3400070474FF0B042536823F423
:102888007F4343EA0023536070474FF0B043186812
:10289800C0F34060704700007FB54FF0B0432C4A4A
:1028A800D3F80831C0F3031003F00F0352F82040A7
:1028B800284A52F82330B4FBF3F4FFF7C9FF264B3C
:1028C800054693E80700B5F5007F04AB03E9070068
:1028D80010D0224B9C4218D303F5B70303F67F535D
:1028E8009C4229D903F5741303F510639C4225D83B
:1028F80002230BE01A4B9C4207D91A4B9C421BD966
:1029080003F5370303F5D853F0E7002304AA02EBD5
:10291800830353F80C4C144D2B6823F0070323430F
:102928002B60FEF771FC06462B6803F007039C42F8
:1029380006D1002004B070BD0123E7E70024EAE7D0
:10294800FEF762FC801B0228EED90320F2E700BFE5
:10295800D0690008306A000854680008C0CF6A00CF
:10296800BFEA21013F933402004000584FF0B043C2
:1029780010B59A68D96812F00C0205D00C2A4AD111
:1029880001F00303012B50D14FF0B0412B480B68E5
:1029980013F0080306D00B6813F0080337D1D1F8F9
:1029A800941007E00C68240756BFD1F894300968E2
:1029B800C3F3032350F82330002A0CBF1846002025
:1029C8004FF0B0418A6802F00C020C2A1ED1CA6886
:1029D80002F00302022A2ED0032A06D10B68184AF5
:1029E80013F4801F174B08BF13464FF0B042D0684E
:1029F800D168D268C0F306205843C1F302130133EB
:102A0800B0FBF3F0530F0133B0FBF3F010BD0B68CC
:102A1800C3F30313CEE7042A0AD0082A05D11B689A
:102A280013F4801304D10648CAE700231846C7E701
:102A380004480023C4E7034BD7E700BFD069000868
:102A48000048E8010024F40008B5FFF78FFF4FF0B5
:102A5800B043044A9B68C3F3031352F82330B0FB16
:102A6800F3F008BD306A00082DE9F041044600285B
:102A780053D04FF0B0439D68DE6803689B0605F0AD
:102A88000C0506F0030668D5026A1DB10C2D46D167
:102A9800012E44D1002A40D04FF0B043A16A1A68F1
:102AA800170756BFD3F894301B681B0903F0F003CF
:102AB80099421FD90846FFF7EFFE00282DD14FF0A5
:102AC800B042136843F0080313601368A16A23F047
:102AD800F0030B431360606AFFF7CEFEFFF7B4FF05
:102AE800AB4B1860AB4B1868FEF746FB002834D098
:102AF800BDE8F0814FF0B042136843F0080313605B
:102B0800136823F0F0030B431360606AFFF7B4FE09
:102B18000846FFF7C1FE0028E0D00120E8E74FF0A3
:102B2800B043002A54D01A6842F001021A60FEF736
:102B38006BFB0746FFF79AFE002842D04FF0B042E1
:102B4800136843F0080313601368A16A23F0F003C5
:102B58000B431360606AFFF78FFE2368D80748D4D9
:102B68002368990700F18C8023681E0740F1FA80DA
:102B7800A3694FF0B046002B00F0E180D6F89430FE
:102B8800E16903F01002914200F0C48003F00302EF
:102B9800022AC2D0D80740F1B380D6F8943023F087
:102BA8000103C6F89430FEF72FFB0746D6F8943099
:102BB800990740F1A580FEF727FBC31B112BF5D918
:102BC80004E0FEF721FBC01B0228B3D903208FE7DE
:102BD8001A6822F001021A60FEF716FB0746FFF793
:102BE80045FE0028B9D0FEF70FFBC01B0228F6D916
:102BF800ECE7082D03D00C2D05D1032E03D1636813
:102C0800002BADD189E74FF0B043A1681A6822F4D0
:102C180080120A431A606268B2F5803F10D11A68C0
:102C280042F480321A60FEF7EFFA0746FFF718FE03
:102C3800002895D1FEF7E8FAC01B6428F6D9C5E745
:102C4800B2F5041F04D11A6842F400121A60E6E7CC
:102C5800196821F480311960196821F4001119608C
:102C6800002AE0D1FEF7D0FA0746FFF7F9FD002861
:102C78003FF476AFFEF7C8FAC01B6428F5D9A5E77C
:102C8800042D236903D00C2D0ED1022E0CD1002B5C
:102C98003FF443AF4FF0B0426169536823F0FE43FD
:102CA80043EA016353605FE74FF0B046BBB1336856
:102CB80043F480733360FEF7A7FA074633685A0572
:102CC80005D4FEF7A1FAC31B022BF7D97EE7736878
:102CD800626923F0FE4343EA0263736044E73368A2
:102CE80023F480733360FEF78FFA074633685B0579
:102CF8007FF53AAFFEF788FAC31B022BF6D965E7D2
:102D08004FF0B042E169D2F8943023F010030B433E
:102D1800C2F894304FF0B047D7F8943043F001032D
:102D2800C7F89430FEF770FA0646D7F894309A0739
:102D380018D4FEF769FA831B112BF6D946E7D6F8A3
:102D4800943023F00103C6F89430FEF75DFA074685
:102D5800D6F894309B0705D5FEF756FAC31B112BFE
:102D6800F6D933E72368580754D50B4F3B68D90584
:102D780014D4FFF765FDFEF747FA06463B68DA0507
:102D88000CD4FEF741FA831B022BF7D91EE700BFCC
:102D98003C0000200400002000040058E3684FF0C5
:102DA800B046002B58D023F08003052B02BFD6F87D
:102DB800903043F00403C6F890304FF0B046FEF769
:102DC80023FAD6F8903043F001030746C6F890304E
:102DD80041F28838D6F890309B0705D4FEF714FAEC
:102DE800C31B4345F6D9F1E6E36823F00403812BBE
:102DF8001BD1FEF709FAD6F8903043F08003C6F8E5
:102E0800903007464FF0B04641F28838D6F89030F7
:102E1800180504D5E36A002B4AD1002068E6FEF7BE
:102E2800F3F9C01B4045F1D9D0E6FEF7EDF9D6F825
:102E3800903023F08003C6F8903007464FF0B04634
:102E480041F28838D6F890301905E3D5FEF7DCF959
:102E5800C01B4045F6D9B9E6FEF7D6F9D6F890304A
:102E680023F080030746C6F8903041F28838D6F838
:102E780090301A0516D4FEF7C7F9D6F8903023F02B
:102E88000103C6F8903007464FF0B04841F2883643
:102E9800D8F890309B07BDD5FEF7B6F9C31BB342EF
:102EA800F6D993E6FEF7B0F9C01B4045DFD98DE6A9
:102EB8000C2D4ED0022B4FF0B0431A6822F08072CE
:102EC8001A6033D1FEF7A0F90546FFF7DEFC38BBE0
:102ED800D4E90C314FF0B0420B43D0682D49014082
:102EE8000B43E16B0B43216C0B43616C0B43A16BF0
:102EF80043EA0123D360136843F080731360D368F7
:102F080043F08053D360FEF77FF90446FFF7BDFC1A
:102F1800002882D1FEF778F9001B0A28F6D955E671
:102F2800FEF772F9401B0A28CFD94FE6FEF76CF975
:102F38000446FFF7AAFC30B94FF0B042164BD168EF
:102F48000B40D36069E7FEF75FF9001B0A28F0D948
:102F58003CE6012B3FF4E1AD4FF0B043D868236B5A
:102F680000F003029A427FF4D8AD626B00F0700360
:102F780093427FF4D2ADA26B00F4FE43B3EB022F71
:102F88007FF4CBAD636C00F06040C01A18BF01201D
:102F9800AEE500BF8C80C111FCFFFEEE2DE9F041CB
:102FA8000D46044610B90120BDE8F081684E33682B
:102FB80003F007038B4216D323689A0727D54FF0EF
:102FC800B047A268BB6823F0F0031343BB60FEF769
:102FD8001BF90646BB68DB0319D4FEF715F9831BFA
:102FE800022BF7D911E0336823F007030B43336052
:102FF800FEF70AF90746336803F00703AB42DBD054
:10300800FEF702F9C01B0228F5D90320CCE7236894
:10301800580617D54FF0B0476269D7F8083123F042
:103028000F0343EA1213C7F80831FEF7EDF8064616
:10303800D7F80831D90305D4FEF7E6F8831B022B2D
:10304800F6D9E2E723685A0713D54FF0B047E2688C
:10305800BB6823F4E0631343BB60FEF7D5F806466C
:10306800BB689B0305D4FEF7CFF8831B022BF7D967
:10307800CBE72368180714D54FF0B0472269BB681F
:1030880023F4605343EAC203BB60FEF7BDF806466B
:10309800BB68590305D4FEF7B7F8831B022BF7D991
:1030A800B3E72368DA070FD4294C236803F0070332
:1030B800AB4239D8FFF7C8FC264B1860264BBDE851
:1030C800F0411868FEF758B86268022A1DD1FFF768
:1030D800C7FB00283FF467AF4FF0B04641F288388D
:1030E800B36823F003031343B360FEF78DF8074674
:1030F800B368626803F00C03B3EB820FD4D0FEF719
:1031080083F8C01B4045F3D97FE7032A02D1FFF7B4
:10311800BCFBDEE712B9FFF7A9FBDAE74FF0B043D3
:103128001B685B05D8D43EE7236823F007032B43CD
:103138002360FEF769F80646236803F00703AB42ED
:10314800B8D0FEF761F8801B0228F5D95DE700BF0B
:10315800004000583C0000200400002008B5FFF79C
:1031680073FC4FF0B043044A9B68C3F3022352F840
:103178002330D84008BD00BF106A000808B5FFF723
:1031880063FC4FF0B043044A9B68C3F3C22352F870
:103198002330D84008BD00BF106A00084FF0B04384
:1031A8001868C0F3802070474FF0B043D3F8900000
:1031B800C0F3400070474FF0B043D3F89400C0F319
:1031C800400070474FF0B0431868C0F3C000704724
:1031D8004FF0B04210B5D36803F00303022B38D088
:1031E800032B10D0FFF7EEFF1B4C014628BBFFF75F
:1031F800E9FF012816BFD2F894101368C1F3032120
:1032080054F8213006E01368144A13F4801F144B55
:1032180008BF13464FF0B042D068D168D268C0F3F7
:1032280006204343C1F30211C2F342600131013069
:10323800B3FBF1F3B3FBF0F010BDFFF7C3FF0128B8
:103248000ABF1068D2F89430C0F3031054F8203045
:10325800E0E7034BDEE700BFD06900080048E8015B
:103268000024F400B0F5807F10B500F0778123D8F2
:10327800202800F0F6800AD8022800F0D280102812
:1032880000F09081012800F0A380002010BD4028A4
:1032980000F052818028F8D14FF0B044B74AD4F8F2
:1032A80088301B0903F4406343F44023934200F041
:1032B800A08002F580624EE1B0F5804F00F0E18019
:1032C80027D8B0F5806F00F08581B0F5006F00F069
:1032D8009E81B0F5007FD8D14FF0B043A84AD3F80B
:1032E80088301B0C03F00C0343F44023934200F096
:1032F800D880B3F10C1F22D0043A934240F0638186
:10330800FFF759FF0128C0D14FF0B043D3F89430EC
:103318001FE0B0F5004F22D0B0F5803FB5D14FF097
:10332800B042D2F8903003F44073B3F5007F0AD06E
:10333800B3F5407F00F08181B3F5807FA5D1FFF719
:1033480033FFC003A2E7FFF736FF01289DD1D2F86B
:103358009430D80654BF4FF4FA40FA2096E74FF05D
:10336800B042D2F8883003F04043B3F1804FEAD03E
:10337800B3F1004FE3D033B91368990185D5BDE89F
:103388001040FFF725BF13689A077FF57EAFFFF758
:1033980019FF7C49024668B9FFF714FF4FF0B043A4
:1033A800012816BFD3F894201B68C2F3032251F8F2
:1033B80022006BE7FFF706FF4FF0B04301280ABF72
:1033C8001868D3F89430C0F3031051F820005DE773
:1033D8004FF0B0436C4AD3F8883003F0030343F44A
:1033E800403393425DD0B3F1031FA8D0013A934212
:1033F80003D1BDE81040FFF7B9BAFFF7B7FA4FF0AD
:10340800B04362499A689B68C2F30312C3F3C223AC
:1034180051F82220B0FBF2F05D4A52F82330D84030
:1034280034E74FF0B044564AD4F8883003F00C0320
:1034380043F44023934234D0B3F10C1F3FF47FAFE1
:10344800043A9342D5D0FFF791FAA268A3684F498E
:10345800C2F30312C3F3022351F82220B0FBF2F0A7
:10346800DAE74FF0B044D4F8883003F44063B3F59A
:10347800006F16D0B3F5406F3FF461AFB3F5806FBE
:10348800E0E74FF0B042D2F8883003F04053B3F190
:10349800005F0DD0B3F1405FABD0B3F1805F7FF434
:1034A800F4AEFFF77BFE01287FF4EFAE3948EDE676
:1034B80013689B017FF5E9AED36803F00303022B81
:1034C80038D0032B10D0FFF77DFE2E4C014628BBC9
:1034D800FFF778FE012816BFD2F894101368C1F3DD
:1034E800032154F8213006E013682B4A13F4801F97
:1034F800284B08BF13464FF0B042D068D168D26855
:10350800C0F306205843C1F302130133B0FBF3F0B4
:10351800C2F344430133B0FBF3F0B7E6FFF752FEC2
:1035280001280ABF1068D2F89430C0F3031054F889
:103538002030E0E7174BDEE74FF0B044174AD4F8E5
:1035480088301B0903F4407343F4403393423FF43B
:1035580050AF02F580729342A3D074E74FF0B044A5
:103568000F4AD4F888301B0903F4405343F440133E
:1035780093423FF43EAF02F58052ECE700040C00A2
:1035880008000C00D069000802000300306A000837
:10359800106A00080024F4000048E8010001030054
:1035A800001030004FF0B043D3F8883003F4407374
:1035B800B3F5007F3FF475AFB3F5407F7FF4DFAE1E
:1035C8004BF6803062E6FFF7D1F94FF0B0439A68C6
:1035D8009B683CE74FF0B044194AD4F888301B0C7C
:1035E80003F0300343F4401393423FF45AAFB3F16E
:1035F800301F3FF4A4AE103A93427FF424AFFFF794
:10360800DAFD01287FF441AED4F89430A1E64FF0FA
:10361800B0440C4AD4F888301B0C03F0C00343F4C0
:10362800400393423FF43DAFB3F1C01F3FF487AE70
:10363800403A93427FF407AF62E6034826E600BFAC
:10364800200030008000C00040420F0070477047E3
:10365800036870B5DD681E69B20704460DD5A90771
:103668000BD56FF002021A61012202779B699A0753
:1036780075D001F0CCFA00232377730710D56807BB
:103688000ED523686FF004021A61022222779B6923
:1036980013F4407F204668D001F0B9FA002323775D
:1036A80031070FD52A070DD523686FF008021A6174
:1036B80004222277DB699B0720465CD001F0A7FA39
:1036C80000232377F10610D5EA060ED523686FF09C
:1036D80010021A6108222277DB6913F4407F204622
:1036E8004FD001F094FA00232377F30708D5E807B1
:1036F80006D523686FF001021A61204601F064FACA
:1037080016F4025F08D0290606D523686FF4025222
:103718001A61204600F0A7F8F20508D52B0606D551
:1037280023686FF480721A61204600F09DF87006D5
:1037380008D5690606D523686FF040021A6120464D
:10374800FFF785FFB20622D5AB0620D523686FF0B8
:10375800200220461A61BDE8704000F083B801F0ED
:1037680054FA2046FFF772FF85E701F04EFA20462B
:10377800FFF76CFF92E701F048FA2046FFF766FF73
:103788009EE701F042FA2046FFF760FFABE770BD05
:103798001A4A036890420BD0B0F1804F08D002F566
:1037A800C052904209D1CA6823F44073134307E01A
:1037B8004A6823F070031343F5E7114A9042F2D0A8
:1037C8004A6923F0800313438A68C2620A688262E6
:1037D8000A4A904207D002F5C052904203D002F53F
:1037E8008062904201D10A690263026842F00402D1
:1037F8000260012242610360704700BF002C014053
:103808000048014010B5044650B390F83D3003F02D
:10381800FF021BB980F83C2001F066FD02232068F6
:1038280084F83D30211DFFF7B3FF012384F84830A9
:10383800002084F83E3084F83F3084F8403084F823
:10384800413084F8423084F8433084F8443084F8B6
:10385800453084F8463084F8473084F83D3010BD50
:103868000120FCE7704770477047000010B50268F8
:1038780052E8003F23F4907342E8003102680029BF
:10388800F5D10F4C02F1080353E8003F234002F141
:10389800080C4CE800310029F4D1C36E012B07D184
:1038A80052E8003F23F0100342E800310029F7D125
:1038B8002023C0F88C300023C366436710BD00BFC7
:1038C800FEFFFFEF026852E8003F23F0800342E862
:1038D800003102680029F5D152E8003F43F0400367
:1038E80042E800310029F7D17047D0F88820212A12
:1038F800034611D1B0F8562092B20AB9FFF7E2BFD9
:10390800026D016812F8010B88621A65B3F8562037
:10391800013A92B2A3F856207047D0F88820212A9D
:10392800034613D1B0F8562092B20AB9FFF7CABFBE
:103938001A6D006832F8021BC1F3080181621A652A
:10394800B3F85620013A92B2A3F856207047D0F83F
:103958008830212B10B51BD1B0F86A20C2B1B0F85D
:103968005610036889B2A1B903F1080252E8002F82
:1039780022F4000203F1080040E800210029F3D1F5
:1039880053E8002F42F0400243E800210029F7D114
:1039980010BDD96909060AD5016D11F8014B9C6261
:1039A800B0F856300165013B9BB2A0F85630013A99
:1039B80092B2D3E7D0F88830212B10B51BD1B0F8DC
:1039C8006A20C2B1B0F85610036889B2A1B903F1F0
:1039D800080252E8002F22F4000203F1080040E830
:1039E80000210029F3D153E8002F42F0400243E8B8
:1039F80000210029F7D110BDD96909060CD5016D40
:103A080031F8024BC4F308049C62B0F856300165E3
:103A1800013B9BB2A0F85630013A92B2D1E7704709
:103A2800704738B50546C8B12423C0F88830036804
:103A38001A68002422F001021A601C605C609C6015
:103A4800FFF7EEFFC5F8904085F88440C5F8884038
:103A58002046C5F88C40EC662C6738BD0120FCE791
:103A6800D0F88830202B10B544D1002944D0002A42
:103A780042D0A0F85620A0F85420426E01650023D9
:103A8800C0F89030B2F1005F4FF02103C0F88830E1
:103A98000268836819D1B3F5805F14D10469174BA4
:103AA8001749002C18BF0B46836702F1080353E837
:103AB800003F43F4000302F1080040E80031002908
:103AC800F3D1002010BD0E4BEEE7B3F5805F0FD1A8
:103AD80004690C4B0C49002C18BF0B46836752E84D
:103AE800003F43F0800342E800310029F7D1E8E7BE
:103AF800054BF3E70220E5E70120E3E7BD390008BD
:103B08005739000823390008F338000808B5806AD7
:103B180001F06CFD08BD70470368D9691A682DE982
:103B2800F04140F60F0631429D68044610D18E06DA
:103B380040F1978002F0200605F080573E4300F0E0
:103B48009080436F002B00F08580BDE8F041184756
:103B5800A84EA9482E401040304300F08280CF077D
:103B680009D5D00507D501201862D4F8900040F097
:103B78000100C4F890008F0709D5E80707D502208F
:103B88001862D4F8900040F00400C4F890004F0781
:103B980009D5E80707D504201862D4F8900040F04A
:103BA8000200C4F890000F070BD502F02000304344
:103BB80007D008201862D4F8900040F00800C4F834
:103BC80090000E050AD5500108D54FF40060186220
:103BD800D4F8903043F02003C4F89030D4F89030F3
:103BE800002B37D08B0609D502F0200205F080554E
:103BF8002A4303D0636F0BB1204698472668D4F850
:103C08009020B36802F0280203F0400353EA02054B
:103C1800204621D0FFF72AFEB3685F0617D5226831
:103C280002F1080353E8003F23F04003083242E85A
:103C380000310029F3D1D4F8800040B16F4B836381
:103C4800FDF729FC30B1D4F88000836B7DE720466E
:103C580001F0CCFCBDE8F08101F0C8FCC4F890503C
:103C6800F8E7E06E012840F08D80CE0640F18A80AA
:103C7800D00640F1878010221A629968B4F85C2057
:103C8800490651D5D4F880100868416889B20029DE
:103C980042D0914240D2A4F85E10026892062FD416
:103CA80053E8002F22F4807243E800210029F7D15D
:103CB80003F1080252E8002F22F0010203F1080084
:103CC80040E800210029F3D103F1080252E8002F4F
:103CD80022F0400203F1080040E800210029F3D156
:103CE8002022C4F88C20E16653E8002F22F010024D
:103CF80043E800210029F7D1D4F88000FDF796FBAE
:103D080002232367B4F85E30B4F85C10C91A89B28C
:103D18002046FFF700FF9DE791429BD103689B0671
:103D280098D502232367F3E7B4F85E10B4F85E0071
:103D380080B289B200288DD0521A91B2002989D058
:103D480053E8002F22F4907243E800200028F7D1AE
:103D58002B4D03F1080252E8002F2A4003F1080610
:103D680046E800200028F4D12022C4F88C2060679F
:103D7800E06653E8002F22F0100243E800200028F4
:103D8800F7D1CEE7CF0209D56E0207D54FF48012DE
:103D980020461A62BDE8F04101F072BC08060BD556
:103DA80002F0800005F40005284305D0A36F002B1E
:103DB8003FF450AF2046C8E64F0611D556060FD53A
:103DC80053E8002F22F0400243E800210029F7D1F0
:103DD8002023C4F88830A167204601F003FC39E7A6
:103DE8000D020FD550000DD52046BDE8F04100F07A
:103DF800DCBD00BF0100001020010004153B0008D5
:103E0800FEFFFFEFCB017FF525AF002ABFF622AFFB
:103E18002046BDE8F04100F0C7BD00BFD0F88C20B7
:103E2800222A08B5036857D15B6AB0F86010826D22
:103E38000B401370836D01338365B0F85E30013B2E
:103E48009BB2A0F85E30B0F85E309BB2002B42D136
:103E5800026852E8003F23F4907342E80031036897
:103E68000029F5D103F1080252E8002F22F00102DF
:103E780003F1080C4CE800210029F3D12022C0F8F6
:103E88008C20184A41679342016705D1C26E012A06
:103E98000ED001F0A3FB1EE05A681102F6D553E8D4
:103EA800002F22F0806243E800210029F7D1EDE7D6
:103EB8000022C26653E8002F22F0100243E80021D6
:103EC8000029F7D1DA69B0F85C10D20644BF102295
:103ED8001A62FFF720FE08BD9A6942F008029A614B
:103EE800F9E700BF00800040D0F88C20222A08B5EE
:103EF800036854D1596AB0F860201140826D22F8E5
:103F0800021B8265B0F85E20013A92B2A0F85E20EA
:103F1800B0F85E2092B2002A40D153E8002F22F474
:103F2800907243E800210029F7D103F1080252E812
:103F3800002F22F0010203F1080C4CE800210029AF
:103F4800F3D12022C0F88C20174A416793420167B9
:103F580005D1C26E012A0ED001F040FB1EE05A685E
:103F68001102F6D553E8002F22F0806243E80021C1
:103F78000029F7D1EDE70022C26653E8002F22F0AE
:103F8800100243E800210029F7D1DA69B0F85C1083
:103F9800D20644BF10221A62FFF7BDFD08BD9A6918
:103FA80042F008029A61F9E70080004003682DE9B1
:103FB800F047DD69D3F800809E68D0F88C20222A6B
:103FC800044640F0B780B0F86830002B00F08D80D0
:103FD800B0F860704FF0000906F001064FF0040ACF
:103FE800AB0640F182802368A26D5B6A3B40137088
:103FF800A36D0133A365B4F85E30013B9BB2A4F80E
:104008005E302368DD6968072AD0E9070AD518F405
:10401800807F07D001221A62D4F8902042F0010272
:10402800C4F89020AA0708D53EB102221A62D4F833
:10403800902042F00402C4F89020680708D53EB1E9
:10404800C3F820A0D4F8903043F00203C4F89030AD
:10405800D4F8903023B1204601F0C8FAC4F8909003
:10406800B4F85E309BB2002BBAD1226852E8003F08
:1040780023F4807342E8003123680029F5D13048E1
:1040880003F1080252E8002F024003F1080545E851
:1040980000210029F4D12022C4F88C20294A616724
:1040A800934221670AD05A68110207D553E8002FB6
:1040B80022F0806243E800210029F7D1E26E012A4C
:1040C80034D10022E26653E8002F22F0100243E8C0
:1040D80000210029F7D1DA69B4F85C10D20644BF90
:1040E80010221A622046FFF716FDB4F85E309BB224
:1040F800D3B1B4F868209A4216D9226802F10803AD
:1041080053E8003F23F08053083242E80031226828
:104118000029F2D10C4B636752E8003F43F02003BB
:1041280042E800310029F7D1BDE8F087204601F0C8
:1041380055FADAE79A6942F008029A61F4E700BF93
:10414800FEFFFFEF00800040253E000803682DE9D0
:10415800F047DD69D3F800809E68D0F88C20222AC9
:10416800044640F0B480B0F86830002B00F08A8034
:10417800B0F860704FF0000906F001064FF0040A2D
:10418800AB067FD52368A26D596A394022F8021B15
:10419800A265B4F85E20013A92B2A4F85E20DD6907
:1041A80068072AD0E9070AD518F4807F07D00122CA
:1041B8001A62D4F8902042F00102C4F89020AA07AD
:1041C80008D53EB102221A62D4F8902042F00402C7
:1041D800C4F89020680708D53EB1C3F820A0D4F8E9
:1041E800903043F00203C4F89030D4F8903023B1F3
:1041F800204601F0FBF9C4F89090B4F85E309BB209
:10420800002BBDD1226852E8003F23F4807342E8B6
:10421800003123680029F5D12F4803F1080252E83C
:10422800002F024003F1080545E800210029F4D1D8
:104238002022C4F88C20294A6167934221670AD05A
:104248005A68110207D553E8002F22F0806243E82C
:1042580000210029F7D1E26E012A34D10022E2665A
:1042680053E8002F22F0100243E800210029F7D17B
:10427800DA69B4F85C10D20644BF10221A622046EC
:10428800FFF749FCB4F85E309BB2D3B1B4F86820AC
:104298009A4216D9226802F1080353E8003F23F036
:1042A8008053083242E8003122680029F2D10C4BD1
:1042B800636752E8003F43F0200342E800310029D9
:1042C800F7D1BDE8F087204601F088F9DAE79A6966
:1042D80042F008029A61F4E7FEFFFFEF0080004019
:1042E800F13E000810B590F88430012B1ED0012350
:1042F80080F884302423C0F88830026852E8003FF0
:1043080023F00C0342E800340168002CF5D151E891
:10431800002F42F0080241E80023002BF7D12022A9
:10432800C0F8882080F88430184610BD0220FCE7C9
:1043380010B590F88430012B1ED0012380F884300A
:104348002423C0F88830026852E8003F23F00C03A9
:1043580042E800340168002CF5D151E8002F42F002
:10436800040241E80023002BF7D12022C0F888205E
:1043780080F88430184610BD0220FCE7D0F8882069
:10438800D0F88C0010437047F8B50446C06921691D
:10439800A26823680A4361691D680A437449024395
:1043A80029400A431A605A68E16822F440520A43D5
:1043B8005A60704AA16993421CBF226A11439A68E5
:1043C80022F06E4222F430620A439A60DA6A616A25
:1043D80022F00F020A43DA62674A934219D14FF07A
:1043E800B043664AD3F8883003F0030343F44033FC
:1043F800934200F0B580B3F1031F24D0013A9342F1
:1044080000F09180B0F5004F00F0AF80FEF7B6FEE7
:1044180094E05B4A93421CD14FF0B0435949D3F81A
:10442800883003F00C0343F440228A4200F098805D
:1044380006D8002B7DD0544B9A4274D001201AE044
:10444800B2F10C1FFAD1B0F5004F4ED04FF4004036
:1044580076E0484A9342F1D14FF0B043D3F8883020
:1044680003F44063B3F5006F15D00BD883B9FEF79A
:1044780075FE88B900204FF00113A3660023C4E934
:104488001D33F8BDB3F5406FD8D14FF4004003E0B9
:10449800FEF76CFAEDE73D4865683D4B626A05EB4F
:1044A800450133F81220B0FBF2F39942C6D8B3EBBA
:1044B800053FC3D800231946FBF742FE00231946DF
:1044C80006464FF4807768082A46E6FB0701FBF7A3
:1044D80037FE304BA0F540729A42AFD82368D860B7
:1044E800C8E7FEF73BFE0028C4D06168284B626A23
:1044F80033F81220B0FBF2F24B0803EB42034FF6FD
:10450800EF72B3FBF1F3A3F11001914296D823F0B7
:104518000F02216892B2C3F342031343CB60A9E7A9
:10452800FEF724FA0AE0B0F5004FF9D1FEF71EFABB
:10453800D9E7B0F5004FD4D0FEF710FE002899D087
:104548006368616A124A32F81120B0FBF2F000EB9E
:104558005300B0FBF3F04FF6EF73A0F11002BBE786
:10456800B0F5004F0948EBD1BFE7FEF707FEBAE701
:10457800F369FFCF008000400038014002000300CB
:104588000044004008000C0004000C000024F40063
:1045980078690008FFFC0F00836A1A0710B506D572
:1045A8000168846B4A6822F4004222434A60DC07AF
:1045B80006D50168C46A4A6822F4003222434A6078
:1045C800990706D50168046B4A6822F480322243B1
:1045D8004A605A0706D50168446B4A6822F480226B
:1045E80022434A60DC0606D50168C46B8A6822F457
:1045F800805222438A60990606D50168046C8A684D
:1046080022F4005222438A605A060FD50168446C8E
:104618004A6822F480122243B4F5801F4A6005D10B
:104628004A68846C22F4C00222434A601B0606D5FD
:104638000268C16C536823F400230B43536010BD18
:104648002DE9F843DDF8209004460D4617469846B4
:104658002268D36935EA03030CBF01230023BB4258
:1046680001D0002022E0B9F1FF3FF2D0FCF7CCFDE9
:10467800A0EB0800484529D8B9F1000F26D02168D9
:104688000B685A07E4D5802DE2D0402DE0D0CE69E2
:1046980016F008060CD0082520460D62FFF7E6F84C
:1046A8000023C4F8905084F884300120BDE8F883D2
:1046B800CB691B05CCD54FF400630B622046FFF78E
:1046C800D5F82023C4F8903084F884600320EDE7FF
:1046D80073B504460026C0F89060FCF795FD236882
:1046E8001B681A0705461CD56FF07E4300933246B7
:1046F80003464FF400112046FFF7A2FF88B1226855
:1047080052E8003F23F0800342E800310029F6D147
:104718002023C4F888300320002384F8843002B0B2
:1047280070BD23681B685B0724D56FF07E43009338
:1047380000222B464FF480012046FFF781FFC8B1C5
:10474800226852E8003F23F4907342E8003122685F
:104758000029F5D102F1080353E8003F23F00103D3
:1047680002F1080040E800310029F3D12023C4F801
:104778008C30D0E720230020C4F88830C4F88C306F
:10478800E0662067C8E710B5044650B3D0F8883013
:104798001BB980F88430FFF742F922682423C4F853
:1047A8008830136823F001031360A36A13B120460D
:1047B800FFF7F2FE2046FFF7E7FD012811D0236836
:1047C8005A6822F490425A609A6822F02A029A6043
:1047D8001A6842F0010220461A60BDE81040FFF74F
:1047E80077BF012010BD10B5044670B3D0F88830EB
:1047F8001BB980F88430FFF712F922682423C4F823
:104808008830136823F001031360A36A13B12046AC
:10481800FFF7C2FE2046FFF7B7FD012815D0236831
:104828005A6822F490425A609A6822F022029A60EA
:104838009A6842F008029A601A6842F0010220461B
:104848001A60BDE81040FFF743BF012010BD00000B
:1048580030B581658168A0F85C200023B1F5805FE0
:10486800A0F85E20436731D10369002B40F2FF13A3
:1048780018BFFF23A0F860300023C0F8903022232F
:10488800C0F88C30016801F1080353E8003F43F099
:104898000103083141E800340368002CF2D1456E69
:1048A80084680169B5F1005F35D1B0F86850954268
:1048B80031D8B4F5805F29D1C1B1264A426753E89F
:1048C800002F42F4807243E8002121E029B90369EE
:1048D800002B0CBFFF237F23CCE7B1F1805FC9D148
:1048E8000369002B0CBF7F233F23C3E71A4A4267A3
:1048F80003F1080252E8002F42F0805203F1080049
:1049080040E800210029F3D1002030BD114A426758
:104918000029D4D1ECE7B4F5805F16D151B10F4A24
:10492800426753E8002F42F4907243E800210029BF
:10493800F7D1E9E70A4A426753E8002F42F020021C
:1049480043E800210029F7D1DEE7044A426700293D
:10495800E7D1F1E7B53F000855410008253E0008BA
:10496800F13E000838B5D0F88C30202B16D1B9B1FB
:10497800B2B100230468C3660A4B9C420AD063683C
:104988001B0207D554E8003F43F0806344E8003534
:10499800002DF7D1FFF75CFF002038BD0220FCE7AF
:1049A8000120FAE7008000407047704790F8843093
:1049B800012B0FD0012380F88430016851E8002FC3
:1049C80042F0020241E80023002BF6D180F884303F
:1049D800184670470220704790F88430012B0FD09A
:1049E800012380F88430016851E8002F22F0020288
:1049F80041E80023002BF6D180F884301846704730
:104A080002207047836810B504462BB10322014683
:104A180098470023C4E9023310BD00000B4B9842AD
:104A28000BD0B0F1804F0AD003F5C053984208D09C
:104A380003F58063984206D0FEE700207047012006
:104A48007047022070470320704700BF002C0140C8
:104A5800C26D70B504461046FFF7E0FF05461046E4
:104A680000F0D6FB084A002342F8253004F1680616
:104A7800E36004F1B805B54204D0103D2846FBF7C1
:104A880091FCF8E7204670BD84020020F8B5044682
:104A98000846FFF7C3FFE26D0D4602B1FEE71C4969
:104AA800E56504F10C0341F820300E23C4E91832FF
:104AB800E460284600F080FB04F1680604F1B807BA
:104AC80030461036FFF79EFFBE42F9D10023C4E9F5
:104AD80000334FF6FF72C4E90C33C4E90E33C4E95E
:104AE8001033C4E90632C4E90833A36084F82C30D3
:104AF800A36484F84C3084F84D30636180232561C9
:104B0800A36204F11000BDE8F840FEF77BBE00BFC9
:104B180084020020034B186810B10430FEF798BDDA
:104B2800704700BF84020020FFF7F4BF034B5868AA
:104B380010B10430FEF78CBD704700BF840200201E
:104B4800034B986810B10430FEF782BD704700BF70
:104B580084020020034BD86810B10430FEF778BDFA
:104B6800704700BF840200200022C0E90022C0E98B
:104B780002227047F8B504460E4600F1680500F1B8
:104B8800B80728461035FFF7EFFFBD42F9D10023DB
:104B98002046E3653146FFF779FF2046F8BD826875
:104BA80010B50AB901F0F8FDBDE81040C368184710
:104BB80008B500B9FEE700F0FDFA0068036F13B10D
:104BC8006830FFF7ECFF08BDFFF7F2BF10B500B97A
:104BD800FEE7037F013B072B10D8DFE803F004143E
:104BE8000F100F0F0F12012400F0E4FA24010068DF
:104BF8006834204483680BB1FFF7D1FF10BD03244C
:104C0800F2E70424F0E70224EEE7FFF7DFBFFFF73F
:104C1800DDBF01F0B3BA01F0B9BA4FF0B04382B0CA
:104C2800DA6C0243DA64DB6C03400193019B02B047
:104C38007047000008B5032818D8DFE800F002081C
:104C48000D120120FFF7E9FF4FF0904008BD022048
:104C5800FFF7E3FF0648F9E70420FFF7DEFF054802
:104C6800F4E78020FFF7D9FF0348EFE70020EDE7DE
:104C78000004004800080048001C004808B5054921
:104C880000F060FA00F47820B0F5004F00D0FEE79D
:104C9800002008BDC86C00080268094B9A420DD173
:104CA8004FF0B0439A6B42F000529A639A6B22F02D
:104CB80000529A639A6D22F000529A65704700BFBD
:104CC8000074004010B5094986B0044600F018FA8F
:104CD800019048B12046FFF7D1FF002101A8FCF759
:104CE80094FB01A8FCF783FB06B010BDC86C000854
:104CF800F8B51349134F064600F002FAFFF78EFE87
:104D080057F82030054673B9B820FFF782FF0C49E1
:104D18000446304600F0F4F901462046FFF72AFF22
:104D280057F825301C601C6844B12046FFF790FEF8
:104D38002046B821BDE8F840FFF76DBFF8BD00BFB9
:104D4800546B000884020020FCF75EBA704708B56F
:104D5800FCF74EFAFCF7E5FAFFF7F8FF08BD7047D5
:104D68004FF0B04382B01A6D42F400221A651A6DF2
:104D780002F400220192019A9A6C42F480529A64D9
:104D88009B6C03F480530093009B02B070470000B3
:104D98000C4BD3F8FC20D2015EBFD3F8FC2042F0C4
:104DA8008072C3F8FC20084B00225A601A6842F04F
:104DB80001021A6000BF00BF00BF5868B0FA80F057
:104DC8004009704700ED00E0001000E008B5FFF76B
:104DD800C7FFFFF7DDFFFCF7F5F9FFF7C0FF00F0AD
:104DE80035FEBDE808400148FCF7A0BA18000020CD
:104DF8000023C0E90033C0E90233704700230128CB
:104E080003F101020AD11422DBB25343054A181DEB
:104E18001044816829B11A44136918474008134699
:104E2800EDE77047940200200120FCF76DBB0220DB
:104E3800FCF76ABB0420FCF767BB0820FCF764BBDF
:104E48001020FCF761BB08B52020FCF75DFB402073
:104E5800FCF75AFB8020FCF757FB4FF48070FCF7F7
:104E680053FBBDE808404FF40070FCF74DBB38B564
:104E780006244FF48065A8B2FCF746FB013C4FEAD4
:104E88004505F8D138BD0000344A104608B5062358
:104E980000F8043BFFF7ACFF072302F11800137575
:104EA800FFF7A6FF082302F12C0082F82830FFF74D
:104EB8009FFF092302F1400082F83C30FFF798FF7A
:104EC8000A2302F1540082F850301621FFF790FFB0
:104ED80002F1680082F86410FFF78AFF02F17C0093
:104EE80082F87810FFF784FF02F1900082F88C10A6
:104EF800FFF77EFF02F1A40082F8A010FFF778FF09
:104F080002F1B80082F8B4102921FFF771FF02F10D
:104F1800CC0082F8C810FFF76BFF02F1E00082F8BE
:104F2800DC10FFF765FF02F1F40082F8F010FFF7DC
:104F38005FFF02F5847082F80411FFF759FF02F54C
:104F48008E7082F81811FFF753FFBDE8084002F58C
:104F5800987082F82C11FFF74BBF00BF9402002015
:104F680038B5054CA4F5A075143C201DFBF71AFABA
:104F7800AC42F9D138BD00BFD4030020431C04D093
:104F88000C3151F80C3C5A1C01D100207047834267
:104F980001F10C01F5D1012070470000F8B5441C5F
:104FA80007460D4600D1FEE700F00F02474BC0F35D
:104FB800031053F82240FFF73DFE94FAA4F2B2FA28
:104FC80082F2034603218068520001FA02F294FA41
:104FD800A4F1B1FA81F120EA0200490003228A40D3
:104FE800024305F007069A60032E03D8DFE806F0AF
:104FF800696B3603FEE7032294FAA4F1B1FA81F152
:1050080018684900032707FA01F120EA010094FA19
:10501800A4F1B1FA81F149008A40013E0243012E10
:105028001A6005D85A6829074CBF2243A2435A6020
:1050380094FAA4F2B2FA82F2D96894FAA4F452006B
:105048000320B4FA84F4C5F3011500FA02F26400EF
:1050580021EA0202A5401543DD60F8BDC5F306212B
:105068007F2901D10222C7E7380716D5220A92FA0A
:10507800A2F0B0FA80F05F6A92FAA2F280004FF0D4
:105088000F0CB2FA82F20CFA00F0920027EA000044
:1050980001FA02F202435A62E4E794FAA4F2B2FA7D
:1050A80082F2186A92000F2707FA02F220EA020039
:1050B80094FAA4F2B2FA82F2920091400143196282
:1050C800D0E7002298E7012296E700BF9069000820
:1050D800431C06D17047834202D18968FFF75EBF3F
:1050E8000C310B685A1CF6D1FEE70B685A1C01D12B
:1050F80000207047834201D1486870470C31F4E7BB
:10510800431C01D0FFF7F1BF002070474B6813B96B
:105118004FF0FF307047834201D1086870470C3167
:10512800F4E708B1FFF7F2BF4FF0FF3070470346CE
:105138000868421C00D17047984201D188687047BE
:105148000C31F5E7431C01D0FFF7F1BF7047034668
:105158008B42084604D01BB100290CBF184600201A
:10516800704700004FF0B0431A6842F061021A60BD
:105178004FF4E0229A6061221A60064ADA6000223F
:105188009A6140F23F321A62034B4FF000629A6014
:10519800704700BF0001042200ED00E04FF0B0436B
:1051A80082B01A6E02431A661B6E03400193019B7C
:1051B80002B0704704387047124B984282B004D14D
:1051C8004FF4006002B0FFF7E9BFB0F1804F0CD197
:1051D8004FF0B0439A6D42F001029A659B6D03F05F
:1051E80001030193019B02B07047074B984202D11B
:1051F8004FF40030E6E7054B9842F4D14FF4802095
:10520800E0E700BF002C0140004401400048014095
:10521800124B984206D14FF0B042136E23F400634C
:1052280013667047B0F1804F06D14FF0B042936DCE
:1052380023F0010393657047094B984205D14FF05D
:10524800B042136E23F40033EAE7064B9842E8D1E4
:105258004FF0B042136E23F48023E1E7002C0140A5
:105268000044014000480140431C10D00C4B9842B8
:1052780010D007D8B0F1804F0ED0A3F5C053984294
:105288000CD0FEE7074B9842FBD11D2070476FF00A
:105298000D0070471C2070471B207047182070476E
:1052A8000044014000480140431C10D00C4B984278
:1052B80010D007D8B0F1804F0ED0A3F5C053984254
:1052C8000CD0FEE7074B9842FBD11D2070476FF0CA
:1052D8000D0070471C2070471B2070471A2070472C
:1052E8000044014000480140016838B504460846BA
:1052F800FFF762FF0846FFF7B7FFD4E91412FBF780
:105308009BFF2068FFF7B0FFFBF7C8FF2268104635
:10531800FFF7CAFF05461046FFF7A6FF85420BD0E8
:105328002846D4E91412FBF787FF2068FFF7BCFF73
:10533800BDE83840FBF7B2BF38BD00000246006840
:1053480084B0C8B1274B984218D14FF0B043196CBC
:1053580041F480411964196C21F480411964196E73
:1053680041F4804119661B6E03F480430193019B4D
:105378002423A2F8B030012004B070471A4B984299
:1053880015D14FF0B043996B41F400319963996B93
:1053980021F400319963996D41F4003199659B6D51
:1053A80003F400330293029B40F22513E1E70F4B0D
:1053B800984215D14FF0B043D96B41F00101D96340
:1053C800D96B21F00101D963D96D41F00101D9658B
:1053D800DB6D03F001030393039B40F22623C8E728
:1053E8000020C9E700380140004400400080004028
:1053F800036810B504461BB390F8B120012A20D0E9
:10540800022A2DD06AB94FF0B043196C41F480419B
:105418001964196C21F480411964196E21F48041D2
:105428001966174B53F82200FEF7FBFA154B94F850
:10543800B12093F8B110914204BF032283F8B12040
:1054480010BD4FF0B043996B41F400319963996BEB
:1054580021F400319963996D21F400319965E0E7F1
:105468004FF0B043D96B41F00101D963D96B21F0FA
:105478000101D963D96D21F00101D965D1E700BFD8
:10548800D4030020400000204368B3F5165F01D81C
:10549800FFF78CBAFFF7A0BA08B5074B90F8B12010
:1054A80053F82200FEF76AFF00F02200A0F1220361
:1054B8005842584108BD00BFD403002008B5074B27
:1054C80090F8B12053F82200FEF758FF00F02100B1
:1054D800A0F121035842584108BD00BFD403002061
:1054E80070B50E46054610B94FF0FF3070BDFFF796
:1054F800D3FF04460028F7D12946012211F8B23F0C
:10550800337095F8B100034B53F82000FFF72AFADF
:105518002046EBE7D403002038B50D460446C0B159
:10552800FFF7BAFFA8B994F9B000C4F89850FBF790
:10553800C3FE94F8B100074B04F1B20153F8200000
:105548000122FFF70FFA94F9B000BDE83840FBF7E5
:10555800A5BE38BDD403002038B515460446C8B1E9
:10556800C0F89C1090F9B000FBF7A6FED4F8B8304C
:10557800B4F8C21094F8B10013FA81F1064BAAB23C
:1055880053F82000FEF76CFA94F9B000BDE83840F3
:10559800FBF784BE38BD00BFD403002050B1D0F85B
:1055A800A430013306D190F8B120034B53F8220000
:1055B800FEF798BE704700BFD403002050B1D0F862
:1055C800A430013306D190F8B120034B53F82200E0
:1055D800FEF7AEBE704700BFD4030020D0F8943069
:1055E80004381847D0F898300438184710B50446DE
:1055F80050F80439DA69D1070CD501221A62FFF78D
:105608004BFFB0B904F1AE0120460122BDE81040BD
:10561800FFF7A8B9DA69920701D50222EEE7DA693D
:10562800510701D50422E9E7DA691207E7D508220C
:10563800E4E710BD08B52420FBF764FE024B1868A8
:10564800BDE80840FEF768BAD403002008B5252055
:10565800FBF758FE034B586818B1BDE80840FEF741
:105668005BBA08BDD403002008B52620FBF74AFE24
:10567800024B9868BDE80840FEF74EBAD4030020F4
:10568800012200F1AE01FFF76DB9000003681C4A62
:10569800934211D14FF0B043D3F88800194B00F072
:1056A800030040F44030984228D0B0F1031F14BFE3
:1056B80000200120C0037047134A93420DD14FF0D8
:1056C800B043D3F88800114B00F00C0040F44020A0
:1056D800984213D0B0F10C1FE9E70D4A93420BD161
:1056E8004FF0B043D3F8880000F44060B0F5006F85
:1056F80004D0B0F5406FDAE70020704705487047DE
:1057080000380140020003000044004008000C007B
:10571800008000400024F40001462DE9F84FFFF70F
:10572800B5FF0A68234B4E68DFF88C809A4205461D
:105738004FEA560723D1DFF88490DFF884B00024BD
:105748004FF4807A39F8023B38F8132000231946C1
:105758002846FAF7F5FC00231946BC46E0FB0AC1C7
:1057680032466046FAF7ECFCA0F54070584503D97C
:1057780001340C2CE6D100242046BDE8F88FC96915
:105788000E4A00244FF6EF7032F8023BB1F5004F95
:1057980038F81330B5FBF3F30CBF07EB4303DB1901
:1057A800B3FBF6F3103B8342E6D901340C2CEBD162
:1057B800E1E700BF0080004078690008706A0008CF
:1057C800FFFC0F002DE9F04F87B0CDE900120293DE
:1057D8009DF8443003939DF8483004939DF84C306D
:1057E8000593824620B90025284607B0BDE8F08F0A
:1057F8007B49D0F8A000FFF783FC7A498046DAF8A5
:10580800A400FFF77DFC78490746DAF8A800FFF7FF
:1058180077FC76490446DAF8AC00FFF771FC714969
:105828008146DAF8A000FFF76BFC6D490546DAF807
:10583800A400FFF765FC0646B8F1000F01D1002D62
:10584800D1D0DAF8A420013202D00FB9002ECAD084
:10585800DAF8A820013201D0002CC4D0DAF8AC2044
:10586800013202D0B9F1000FBDD039464046FFF7EA
:105878006EFCCAF8000028B931462846FFF767FCD5
:10588800CAF800002146FFF762FC4946CAF8000042
:10589800FFF75DFCCAF800000028A4D0B8F1000F9B
:1058A80000F088804E49DAF8A000FFF711FC002FBD
:1058B8007AD14FF0000B5046FFF740FD0AF104087B
:1058C800054634B14849DAF8A800FFF701FC4FF45F
:1058D8008074B9F1000F06D04449DAF8AC0044F4FA
:1058E8000074FFF7F5FB9AF8B110414A009B42F8A3
:1058F8002180DAF80020CAF80420109ACAF8083083
:10590800CAF81020019BCAF80C300C22029BCAF876
:105918001430CAE906240022CAF820204046FFF7BE
:10592800FBFE039BCAF828000822CAF82C20CAF8F4
:105938003CB033B10A22CAF82C204FF48032CAF89E
:105948003420049B4BB1DAF82C2042F00102CAF84B
:105958002C204FF40032CAF83020059B4BB1DAF8FE
:105968002C2042F00402CAF82C204FF48022CAF8F6
:1059780038200022CAF824209AF9B0000121FBF748
:105988005BFCDAF804201B4B9A4202D14046FFF731
:105998007BFD404607BBFEB9FEF725FF002814BF74
:1059A800002505F001051FE70E49DAF8A400FFF706
:1059B8008FFB7EE7002D3FF47CAF0A49DAF8A000A0
:1059C800FFF786FB16B94FF4004B74E70449DAF881
:1059D800A400FFF77DFBF6E7FEF7D5FEDEE700BF84
:1059E8000C6B0008B86A0008A06A0008886A0008FA
:1059F800D4030020008000400A490346086810B517
:105A08000344EFF30882934205D9074B0C221A602E
:105A18004FF0FF3010BD054A054C121B9342F4D2DB
:105A28000B60F7E70801002098060020000001201D
:105A380000040000FEE70000024B16221A604FF037
:105A4800FF307047980600200120704700B59BB0D2
:105A58004822002108A800F085FC1822002102A88D
:105A680000F080FCFCF7ECFE4FF0B0420120D2F8C9
:105A7800903023F01803C2F89030D2F8003423F4A1
:105A8800C06343F40073C2F80034D2F8003403F45E
:105A9800C0630193019B2423089381230B93002364
:105AA800CDE91003B02208A8CDE91223FCF7DCFFEA
:105AB80000B1FEE74F23CDE90230CDE90400CDE97E
:105AC8000600022102A8FDF769FA00B1FEE71BB043
